{
  "_format": "hh-sol-artifact-1",
  "contractName": "SsacCommunityV2",
  "sourceName": "contracts/SsacCommunityV2.sol",
  "abi": [
    {
      "anonymous": false,
      "inputs": [
        {
          "indexed": false,
          "internalType": "uint8",
          "name": "version",
          "type": "uint8"
        }
      ],
      "name": "Initialized",
      "type": "event"
    },
    {
      "inputs": [],
      "name": "addMember",
      "outputs": [],
      "stateMutability": "nonpayable",
      "type": "function"
    },
    {
      "inputs": [
        {
          "internalType": "uint256",
          "name": "",
          "type": "uint256"
        },
        {
          "internalType": "uint256",
          "name": "",
          "type": "uint256"
        }
      ],
      "name": "contestVoters",
      "outputs": [
        {
          "internalType": "address",
          "name": "",
          "type": "address"
        }
      ],
      "stateMutability": "view",
      "type": "function"
    },
    {
      "inputs": [
        {
          "internalType": "uint256",
          "name": "",
          "type": "uint256"
        }
      ],
      "name": "contestWinner",
      "outputs": [
        {
          "internalType": "uint256",
          "name": "",
          "type": "uint256"
        }
      ],
      "stateMutability": "view",
      "type": "function"
    },
    {
      "inputs": [
        {
          "internalType": "uint256",
          "name": "",
          "type": "uint256"
        }
      ],
      "name": "contests",
      "outputs": [
        {
          "internalType": "uint256",
          "name": "contestId",
          "type": "uint256"
        },
        {
          "internalType": "string",
          "name": "contestName",
          "type": "string"
        },
        {
          "internalType": "uint256",
          "name": "registrationFee",
          "type": "uint256"
        },
        {
          "internalType": "uint256",
          "name": "tokenReward",
          "type": "uint256"
        },
        {
          "internalType": "uint256",
          "name": "prizePool",
          "type": "uint256"
        },
        {
          "internalType": "uint256",
          "name": "startDate",
          "type": "uint256"
        },
        {
          "internalType": "bool",
          "name": "open",
          "type": "bool"
        }
      ],
      "stateMutability": "view",
      "type": "function"
    },
    {
      "inputs": [
        {
          "internalType": "string",
          "name": "_name",
          "type": "string"
        },
        {
          "internalType": "uint256",
          "name": "_registrationFee",
          "type": "uint256"
        },
        {
          "internalType": "uint256",
          "name": "_tokenReward",
          "type": "uint256"
        }
      ],
      "name": "createContest",
      "outputs": [],
      "stateMutability": "nonpayable",
      "type": "function"
    },
    {
      "inputs": [
        {
          "internalType": "uint256",
          "name": "_contestId",
          "type": "uint256"
        },
        {
          "internalType": "string",
          "name": "_title",
          "type": "string"
        },
        {
          "internalType": "address",
          "name": "_NFT_Address",
          "type": "address"
        }
      ],
      "name": "createEntry",
      "outputs": [],
      "stateMutability": "payable",
      "type": "function"
    },
    {
      "inputs": [
        {
          "internalType": "uint256",
          "name": "_contestId",
          "type": "uint256"
        }
      ],
      "name": "endContest",
      "outputs": [],
      "stateMutability": "nonpayable",
      "type": "function"
    },
    {
      "inputs": [
        {
          "internalType": "uint256",
          "name": "",
          "type": "uint256"
        },
        {
          "internalType": "uint256",
          "name": "",
          "type": "uint256"
        }
      ],
      "name": "entries",
      "outputs": [
        {
          "internalType": "uint256",
          "name": "entryId",
          "type": "uint256"
        },
        {
          "internalType": "string",
          "name": "entryTitle",
          "type": "string"
        },
        {
          "internalType": "address",
          "name": "entrantAddress",
          "type": "address"
        },
        {
          "internalType": "address",
          "name": "NFT_Address",
          "type": "address"
        },
        {
          "internalType": "uint256",
          "name": "noOfVotes",
          "type": "uint256"
        }
      ],
      "stateMutability": "view",
      "type": "function"
    },
    {
      "inputs": [
        {
          "internalType": "uint256",
          "name": "",
          "type": "uint256"
        }
      ],
      "name": "entriesCount",
      "outputs": [
        {
          "internalType": "uint256",
          "name": "",
          "type": "uint256"
        }
      ],
      "stateMutability": "view",
      "type": "function"
    },
    {
      "inputs": [
        {
          "internalType": "uint256",
          "name": "_contestId",
          "type": "uint256"
        }
      ],
      "name": "getContest",
      "outputs": [
        {
          "components": [
            {
              "internalType": "uint256",
              "name": "contestId",
              "type": "uint256"
            },
            {
              "internalType": "string",
              "name": "contestName",
              "type": "string"
            },
            {
              "internalType": "uint256",
              "name": "registrationFee",
              "type": "uint256"
            },
            {
              "internalType": "uint256",
              "name": "tokenReward",
              "type": "uint256"
            },
            {
              "internalType": "uint256",
              "name": "prizePool",
              "type": "uint256"
            },
            {
              "internalType": "uint256",
              "name": "startDate",
              "type": "uint256"
            },
            {
              "internalType": "bool",
              "name": "open",
              "type": "bool"
            }
          ],
          "internalType": "struct SsacCommunityV2.Contest",
          "name": "",
          "type": "tuple"
        }
      ],
      "stateMutability": "view",
      "type": "function"
    },
    {
      "inputs": [
        {
          "internalType": "uint256",
          "name": "_contestId",
          "type": "uint256"
        }
      ],
      "name": "getContestPrizePool",
      "outputs": [
        {
          "internalType": "uint256",
          "name": "",
          "type": "uint256"
        }
      ],
      "stateMutability": "view",
      "type": "function"
    },
    {
      "inputs": [
        {
          "internalType": "uint256",
          "name": "_contestId",
          "type": "uint256"
        }
      ],
      "name": "getContestWinner",
      "outputs": [
        {
          "internalType": "uint256",
          "name": "",
          "type": "uint256"
        }
      ],
      "stateMutability": "view",
      "type": "function"
    },
    {
      "inputs": [
        {
          "internalType": "uint256",
          "name": "_contestId",
          "type": "uint256"
        },
        {
          "internalType": "uint256",
          "name": "_entryId",
          "type": "uint256"
        }
      ],
      "name": "getEntry",
      "outputs": [
        {
          "components": [
            {
              "internalType": "uint256",
              "name": "entryId",
              "type": "uint256"
            },
            {
              "internalType": "string",
              "name": "entryTitle",
              "type": "string"
            },
            {
              "internalType": "address",
              "name": "entrantAddress",
              "type": "address"
            },
            {
              "internalType": "address",
              "name": "NFT_Address",
              "type": "address"
            },
            {
              "internalType": "uint256",
              "name": "noOfVotes",
              "type": "uint256"
            }
          ],
          "internalType": "struct SsacCommunityV2.Entry",
          "name": "",
          "type": "tuple"
        }
      ],
      "stateMutability": "view",
      "type": "function"
    },
    {
      "inputs": [
        {
          "internalType": "uint256",
          "name": "_contestId",
          "type": "uint256"
        }
      ],
      "name": "getEntryWithHighestVote",
      "outputs": [
        {
          "internalType": "uint256",
          "name": "",
          "type": "uint256"
        }
      ],
      "stateMutability": "view",
      "type": "function"
    },
    {
      "inputs": [],
      "name": "getNoOfContests",
      "outputs": [
        {
          "internalType": "uint256",
          "name": "",
          "type": "uint256"
        }
      ],
      "stateMutability": "view",
      "type": "function"
    },
    {
      "inputs": [
        {
          "internalType": "uint256",
          "name": "_contestId",
          "type": "uint256"
        }
      ],
      "name": "getNoOfEntries",
      "outputs": [
        {
          "internalType": "uint256",
          "name": "",
          "type": "uint256"
        }
      ],
      "stateMutability": "view",
      "type": "function"
    },
    {
      "inputs": [
        {
          "internalType": "uint256",
          "name": "_contestId",
          "type": "uint256"
        },
        {
          "internalType": "uint256",
          "name": "_entryId",
          "type": "uint256"
        }
      ],
      "name": "getNoOfVotes",
      "outputs": [
        {
          "internalType": "uint256",
          "name": "",
          "type": "uint256"
        }
      ],
      "stateMutability": "view",
      "type": "function"
    },
    {
      "inputs": [],
      "name": "getTokenAddress",
      "outputs": [
        {
          "internalType": "address",
          "name": "",
          "type": "address"
        }
      ],
      "stateMutability": "view",
      "type": "function"
    },
    {
      "inputs": [
        {
          "internalType": "uint256",
          "name": "_contestId",
          "type": "uint256"
        },
        {
          "internalType": "address",
          "name": "_addr",
          "type": "address"
        }
      ],
      "name": "hasVoted",
      "outputs": [
        {
          "internalType": "bool",
          "name": "",
          "type": "bool"
        }
      ],
      "stateMutability": "view",
      "type": "function"
    },
    {
      "inputs": [
        {
          "internalType": "uint256",
          "name": "_votingCost",
          "type": "uint256"
        }
      ],
      "name": "initialize",
      "outputs": [],
      "stateMutability": "nonpayable",
      "type": "function"
    },
    {
      "inputs": [
        {
          "internalType": "uint256",
          "name": "_contestId",
          "type": "uint256"
        }
      ],
      "name": "isContest",
      "outputs": [
        {
          "internalType": "bool",
          "name": "",
          "type": "bool"
        }
      ],
      "stateMutability": "view",
      "type": "function"
    },
    {
      "inputs": [
        {
          "internalType": "uint256",
          "name": "_contestId",
          "type": "uint256"
        },
        {
          "internalType": "uint256",
          "name": "_entryId",
          "type": "uint256"
        }
      ],
      "name": "isEntry",
      "outputs": [
        {
          "internalType": "bool",
          "name": "",
          "type": "bool"
        }
      ],
      "stateMutability": "view",
      "type": "function"
    },
    {
      "inputs": [
        {
          "internalType": "address",
          "name": "_addr",
          "type": "address"
        }
      ],
      "name": "isMember",
      "outputs": [
        {
          "internalType": "bool",
          "name": "",
          "type": "bool"
        }
      ],
      "stateMutability": "view",
      "type": "function"
    },
    {
      "inputs": [
        {
          "internalType": "uint256",
          "name": "",
          "type": "uint256"
        }
      ],
      "name": "members",
      "outputs": [
        {
          "internalType": "address",
          "name": "",
          "type": "address"
        }
      ],
      "stateMutability": "view",
      "type": "function"
    },
    {
      "inputs": [
        {
          "internalType": "address",
          "name": "_to",
          "type": "address"
        },
        {
          "internalType": "uint256",
          "name": "_amount",
          "type": "uint256"
        }
      ],
      "name": "mintToken",
      "outputs": [],
      "stateMutability": "nonpayable",
      "type": "function"
    },
    {
      "inputs": [],
      "name": "owner",
      "outputs": [
        {
          "internalType": "address",
          "name": "",
          "type": "address"
        }
      ],
      "stateMutability": "view",
      "type": "function"
    },
    {
      "inputs": [
        {
          "internalType": "uint256",
          "name": "_contestId",
          "type": "uint256"
        },
        {
          "internalType": "uint256",
          "name": "_entryId",
          "type": "uint256"
        }
      ],
      "name": "vote",
      "outputs": [],
      "stateMutability": "nonpayable",
      "type": "function"
    }
  ],
  "bytecode": "0x608060405234801561001057600080fd5b506158d6806100206000396000f3fe608060405260043610620001c45760003560e01c806359f444eb116200010357806398ba676d1162000097578063afa984d0116200006d578063afa984d01462000739578063b384abef1462000767578063cd51b9391462000795578063fe4b84df14620007d957620001c4565b806398ba676d14620006675780639d7ed73814620006ab578063a230c52414620006f557620001c4565b80638571700111620000d957806385717001146200056b5780638cc7865c14620005af5780638da5cb5b14620005f3578063904b9f72146200062357620001c4565b806359f444eb14620004b55780635daf08ca14620004f957806379c65068146200053d57620001c4565b80631b9934ec116200017b578063308b04411162000151578063308b044114620003bb57806334da9de714620003e957806343859632146200042d5780635886d7db146200047157620001c4565b80631b9934ec14620003135780631de15b4a14620003575780631ef72d3e146200037757620001c4565b8063029d010d14620001c95780630dcbacdb14620001e35780630e5a8c7c146200022757806310fe9ae8146200025757806317b937e614620002875780631a85afbc14620002cf575b600080fd5b348015620001d657600080fd5b50620001e162000807565b005b348015620001f057600080fd5b506200020f600480360381019062000209919062002163565b62000888565b6040516200021e9190620021a6565b60405180910390f35b3480156200023457600080fd5b506200023f620008a5565b6040516200024e9190620021a6565b60405180910390f35b3480156200026457600080fd5b506200026f620008b2565b6040516200027e919062002208565b60405180910390f35b3480156200029457600080fd5b50620002b36004803603810190620002ad919062002225565b620008db565b604051620002c695949392919062002306565b60405180910390f35b348015620002dc57600080fd5b50620002fb6004803603810190620002f5919062002163565b620009ee565b6040516200030a9190620021a6565b60405180910390f35b3480156200032057600080fd5b506200033f600480360381019062000339919062002163565b62000a0b565b6040516200034e9190620021a6565b60405180910390f35b6200037560048036038101906200036f919062002409565b62000a23565b005b3480156200038457600080fd5b50620003a360048036038101906200039d919062002163565b62000d1d565b604051620003b29190620021a6565b60405180910390f35b348015620003c857600080fd5b50620003e76004803603810190620003e1919062002489565b62000d35565b005b348015620003f657600080fd5b506200041560048036038101906200040f919062002225565b62000f19565b60405162000424919062002208565b60405180910390f35b3480156200043a57600080fd5b5062000459600480360381019062000453919062002509565b62000f68565b6040516200046891906200256d565b60405180910390f35b3480156200047e57600080fd5b506200049d600480360381019062000497919062002163565b6200103e565b604051620004ac91906200256d565b60405180910390f35b348015620004c257600080fd5b50620004e16004803603810190620004db919062002163565b6200107d565b604051620004f09190620021a6565b60405180910390f35b3480156200050657600080fd5b506200052560048036038101906200051f919062002163565b6200116a565b60405162000534919062002208565b60405180910390f35b3480156200054a57600080fd5b506200056960048036038101906200056391906200258a565b620011aa565b005b3480156200057857600080fd5b5062000597600480360381019062000591919062002225565b620012d4565b604051620005a69190620021a6565b60405180910390f35b348015620005bc57600080fd5b50620005db6004803603810190620005d5919062002225565b620012f3565b604051620005ea91906200256d565b60405180910390f35b3480156200060057600080fd5b506200060b62001350565b6040516200061a919062002208565b60405180910390f35b3480156200063057600080fd5b506200064f600480360381019062000649919062002163565b62001376565b6040516200065e9190620026ef565b60405180910390f35b3480156200067457600080fd5b506200069360048036038101906200068d919062002225565b6200149e565b604051620006a29190620027a4565b60405180910390f35b348015620006b857600080fd5b50620006d76004803603810190620006d1919062002163565b62001639565b604051620006ec9796959493929190620027c8565b60405180910390f35b3480156200070257600080fd5b506200072160048036038101906200071b91906200284c565b62001729565b6040516200073091906200256d565b60405180910390f35b3480156200074657600080fd5b506200076560048036038101906200075f919062002163565b620017dc565b005b3480156200077457600080fd5b506200079360048036038101906200078d919062002225565b62001ab5565b005b348015620007a257600080fd5b50620007c16004803603810190620007bb919062002163565b62001e36565b604051620007d09190620021a6565b60405180910390f35b348015620007e657600080fd5b50620008056004803603810190620007ff919062002163565b62001e53565b005b60001515620008163362001729565b1515146200082357600080fd5b6001339080600181540180825580915050600190039060005260206000200160009091909190916101000a81548173ffffffffffffffffffffffffffffffffffffffff021916908373ffffffffffffffffffffffffffffffffffffffff160217905550565b600060096000838152602001908152602001600020549050919050565b6000600580549050905090565b60008060029054906101000a900473ffffffffffffffffffffffffffffffffffffffff16905090565b6006602052816000526040600020602052806000526040600020600091509150508060000154908060010180546200091390620028ad565b80601f01602080910402602001604051908101604052809291908181526020018280546200094190620028ad565b8015620009925780601f10620009665761010080835404028352916020019162000992565b820191906000526020600020905b8154815290600101906020018083116200097457829003601f168201915b5050505050908060020160009054906101000a900473ffffffffffffffffffffffffffffffffffffffff16908060030160009054906101000a900473ffffffffffffffffffffffffffffffffffffffff16908060040154905085565b600080620009fc8362001376565b90508060800151915050919050565b60076020528060005260406000206000915090505481565b600062000a308562001376565b905062000a3d3362001729565b62000a7f576040517f08c379a000000000000000000000000000000000000000000000000000000000815260040162000a769062002932565b60405180910390fd5b62000a8a856200103e565b62000acc576040517f08c379a000000000000000000000000000000000000000000000000000000000815260040162000ac390620029ca565b60405180910390fd5b806040015134101562000b16576040517f08c379a000000000000000000000000000000000000000000000000000000000815260040162000b0d9062002a3c565b60405180910390fd5b600160076000878152602001908152602001600020600082825462000b3c919062002a8d565b92505081905550346005868154811062000b5b5762000b5a62002ac8565b5b9060005260206000209060070201600401600082825462000b7d919062002a8d565b925050819055506000600760008781526020019081526020016000205490506040518060a0016040528082815260200186868080601f016020809104026020016040519081016040528093929190818152602001838380828437600081840152601f19601f8201169050808301925050505050505081526020013373ffffffffffffffffffffffffffffffffffffffff1681526020018473ffffffffffffffffffffffffffffffffffffffff168152602001600081525060066000888152602001908152602001600020600083815260200190815260200160002060008201518160000155602082015181600101908162000c79919062002cf8565b5060408201518160020160006101000a81548173ffffffffffffffffffffffffffffffffffffffff021916908373ffffffffffffffffffffffffffffffffffffffff16021790555060608201518160030160006101000a81548173ffffffffffffffffffffffffffffffffffffffff021916908373ffffffffffffffffffffffffffffffffffffffff16021790555060808201518160040155905050505050505050565b60096020528060005260406000206000915090505481565b600260009054906101000a900473ffffffffffffffffffffffffffffffffffffffff1673ffffffffffffffffffffffffffffffffffffffff163373ffffffffffffffffffffffffffffffffffffffff161462000dc8576040517f08c379a000000000000000000000000000000000000000000000000000000000815260040162000dbf9062002e55565b60405180910390fd5b60056040518060e00160405280600354815260200186868080601f016020809104026020016040519081016040528093929190818152602001838380828437600081840152601f19601f8201169050808301925050505050505081526020018481526020018381526020016000815260200142815260200160011515815250908060018154018082558091505060019003906000526020600020906007020160009091909190915060008201518160000155602082015181600101908162000e91919062002cf8565b5060408201518160020155606082015181600301556080820151816004015560a0820151816005015560c08201518160060160006101000a81548160ff021916908315150217905550505060006007600060035481526020019081526020016000208190555060016003600082825462000f0c919062002a8d565b9250508190555050505050565b6008602052816000526040600020818154811062000f3657600080fd5b906000526020600020016000915091509054906101000a900473ffffffffffffffffffffffffffffffffffffffff1681565b6000805b600860008581526020019081526020016000208054905081101562001032578273ffffffffffffffffffffffffffffffffffffffff1660086000868152602001908152602001600020828154811062000fca5762000fc962002ac8565b5b9060005260206000200160009054906101000a900473ffffffffffffffffffffffffffffffffffffffff1673ffffffffffffffffffffffffffffffffffffffff16036200101c57600191505062001038565b8080620010299062002e77565b91505062000f6c565b50600090505b92915050565b60006005828154811062001057576200105662002ac8565b5b906000526020600020906007020160060160009054906101000a900460ff169050919050565b600080600760008481526020019081526020016000205490506000806000600190505b600184620010af919062002a8d565b8110156200115e5782600660008881526020019081526020016000206000838152602001908152602001600020600401541115620011415760066000878152602001908152602001600020600082815260200190815260200160002060040154925060066000878152602001908152602001600020600082815260200190815260200160002060000154915062001147565b62001148565b5b8080620011559062002e77565b915050620010a0565b50809350505050919050565b600181815481106200117b57600080fd5b906000526020600020016000915054906101000a900473ffffffffffffffffffffffffffffffffffffffff1681565b600260009054906101000a900473ffffffffffffffffffffffffffffffffffffffff1673ffffffffffffffffffffffffffffffffffffffff163373ffffffffffffffffffffffffffffffffffffffff16146200123d576040517f08c379a0000000000000000000000000000000000000000000000000000000008152600401620012349062002e55565b60405180910390fd5b600060029054906101000a900473ffffffffffffffffffffffffffffffffffffffff1673ffffffffffffffffffffffffffffffffffffffff166340c10f1983836040518363ffffffff1660e01b81526004016200129c92919062002ec4565b600060405180830381600087803b158015620012b757600080fd5b505af1158015620012cc573d6000803e3d6000fd5b505050505050565b600080620012e384846200149e565b9050806080015191505092915050565b600062001300836200103e565b6200130a57600080fd5b60006006600085815260200190815260200160002060008481526020019081526020016000206000015411156200134557600190506200134a565b600090505b92915050565b600260009054906101000a900473ffffffffffffffffffffffffffffffffffffffff1681565b6200138062002076565b6005828154811062001397576200139662002ac8565b5b90600052602060002090600702016040518060e001604052908160008201548152602001600182018054620013cc90620028ad565b80601f0160208091040260200160405190810160405280929190818152602001828054620013fa90620028ad565b80156200144b5780601f106200141f576101008083540402835291602001916200144b565b820191906000526020600020905b8154815290600101906020018083116200142d57829003601f168201915b50505050508152602001600282015481526020016003820154815260200160048201548152602001600582015481526020016006820160009054906101000a900460ff1615151515815250509050919050565b620014a8620020b5565b6006600084815260200190815260200160002060008381526020019081526020016000206040518060a001604052908160008201548152602001600182018054620014f390620028ad565b80601f01602080910402602001604051908101604052809291908181526020018280546200152190620028ad565b8015620015725780601f10620015465761010080835404028352916020019162001572565b820191906000526020600020905b8154815290600101906020018083116200155457829003601f168201915b505050505081526020016002820160009054906101000a900473ffffffffffffffffffffffffffffffffffffffff1673ffffffffffffffffffffffffffffffffffffffff1673ffffffffffffffffffffffffffffffffffffffff1681526020016003820160009054906101000a900473ffffffffffffffffffffffffffffffffffffffff1673ffffffffffffffffffffffffffffffffffffffff1673ffffffffffffffffffffffffffffffffffffffff168152602001600482015481525050905092915050565b600581815481106200164a57600080fd5b90600052602060002090600702016000915090508060000154908060010180546200167590620028ad565b80601f0160208091040260200160405190810160405280929190818152602001828054620016a390620028ad565b8015620016f45780601f10620016c857610100808354040283529160200191620016f4565b820191906000526020600020905b815481529060010190602001808311620016d657829003601f168201915b5050505050908060020154908060030154908060040154908060050154908060060160009054906101000a900460ff16905087565b6000805b600180549050811015620017d1578273ffffffffffffffffffffffffffffffffffffffff166001828154811062001769576200176862002ac8565b5b9060005260206000200160009054906101000a900473ffffffffffffffffffffffffffffffffffffffff1673ffffffffffffffffffffffffffffffffffffffff1603620017bb576001915050620017d7565b8080620017c89062002e77565b9150506200172d565b50600090505b919050565b600260009054906101000a900473ffffffffffffffffffffffffffffffffffffffff1673ffffffffffffffffffffffffffffffffffffffff163373ffffffffffffffffffffffffffffffffffffffff16146200186f576040517f08c379a0000000000000000000000000000000000000000000000000000000008152600401620018669062002e55565b60405180910390fd5b600115156200187e826200103e565b151514620018c3576040517f08c379a0000000000000000000000000000000000000000000000000000000008152600401620018ba9062002f41565b60405180910390fd5b6000620018d08262001376565b90506000620018df836200107d565b90506000620018ef84836200149e565b905060008360600151905060008460800151905060008360400151905060008173ffffffffffffffffffffffffffffffffffffffff1683604051620019349062002f98565b60006040518083038185875af1925050503d806000811462001973576040519150601f19603f3d011682016040523d82523d6000602084013e62001978565b606091505b5050905080620019bf576040517f08c379a0000000000000000000000000000000000000000000000000000000008152600401620019b69062002fff565b60405180910390fd5b600060029054906101000a900473ffffffffffffffffffffffffffffffffffffffff1673ffffffffffffffffffffffffffffffffffffffff166340c10f1983866040518363ffffffff1660e01b815260040162001a1e92919062002ec4565b600060405180830381600087803b15801562001a3957600080fd5b505af115801562001a4e573d6000803e3d6000fd5b5050505085600960008a81526020019081526020016000208190555060006005898154811062001a835762001a8262002ac8565b5b906000526020600020906007020160060160006101000a81548160ff0219169083151502179055505050505050505050565b6001151562001ac4836200103e565b15151462001b09576040517f08c379a000000000000000000000000000000000000000000000000000000000815260040162001b009062002f41565b60405180910390fd5b6001151562001b198383620012f3565b15151462001b5e576040517f08c379a000000000000000000000000000000000000000000000000000000000815260040162001b559062003071565b60405180910390fd5b62001b693362001729565b62001bab576040517f08c379a000000000000000000000000000000000000000000000000000000000815260040162001ba290620030e3565b60405180910390fd5b600454600060029054906101000a900473ffffffffffffffffffffffffffffffffffffffff1673ffffffffffffffffffffffffffffffffffffffff166370a08231336040518263ffffffff1660e01b815260040162001c0b919062002208565b602060405180830381865afa15801562001c29573d6000803e3d6000fd5b505050506040513d601f19601f8201168201806040525081019062001c4f91906200311c565b101562001c93576040517f08c379a000000000000000000000000000000000000000000000000000000000815260040162001c8a906200319e565b60405180910390fd5b6000151562001ca3833362000f68565b15151462001ce8576040517f08c379a000000000000000000000000000000000000000000000000000000000815260040162001cdf9062003210565b60405180910390fd5b600060029054906101000a900473ffffffffffffffffffffffffffffffffffffffff1673ffffffffffffffffffffffffffffffffffffffff166379cc6790336004546040518363ffffffff1660e01b815260040162001d4992919062002ec4565b600060405180830381600087803b15801562001d6457600080fd5b505af115801562001d79573d6000803e3d6000fd5b5050505060086000838152602001908152602001600020339080600181540180825580915050600190039060005260206000200160009091909190916101000a81548173ffffffffffffffffffffffffffffffffffffffff021916908373ffffffffffffffffffffffffffffffffffffffff1602179055506001600660008481526020019081526020016000206000838152602001908152602001600020600401600082825462001e2b919062002a8d565b925050819055505050565b600060076000838152602001908152602001600020549050919050565b60008060019054906101000a900460ff1615905080801562001e855750600160008054906101000a900460ff1660ff16105b8062001eb6575062001e973062002053565b15801562001eb55750600160008054906101000a900460ff1660ff16145b5b62001ef8576040517f08c379a000000000000000000000000000000000000000000000000000000000815260040162001eef90620032a8565b60405180910390fd5b60016000806101000a81548160ff021916908360ff160217905550801562001f36576001600060016101000a81548160ff0219169083151502179055505b60405162001f449062002110565b604051809103906000f08015801562001f61573d6000803e3d6000fd5b50600060026101000a81548173ffffffffffffffffffffffffffffffffffffffff021916908373ffffffffffffffffffffffffffffffffffffffff1602179055506003546003819055508160048190555033600260006101000a81548173ffffffffffffffffffffffffffffffffffffffff021916908373ffffffffffffffffffffffffffffffffffffffff16021790555080156200204f5760008060016101000a81548160ff0219169083151502179055507f7f26b83ff96e1f2b6a682f133852f6798a09c465da95921460cefb384740249860016040516200204691906200331a565b60405180910390a15b5050565b6000808273ffffffffffffffffffffffffffffffffffffffff163b119050919050565b6040518060e001604052806000815260200160608152602001600081526020016000815260200160008152602001600081526020016000151581525090565b6040518060a001604052806000815260200160608152602001600073ffffffffffffffffffffffffffffffffffffffff168152602001600073ffffffffffffffffffffffffffffffffffffffff168152602001600081525090565b612569806200333883390190565b600080fd5b600080fd5b6000819050919050565b6200213d8162002128565b81146200214957600080fd5b50565b6000813590506200215d8162002132565b92915050565b6000602082840312156200217c576200217b6200211e565b5b60006200218c848285016200214c565b91505092915050565b620021a08162002128565b82525050565b6000602082019050620021bd600083018462002195565b92915050565b600073ffffffffffffffffffffffffffffffffffffffff82169050919050565b6000620021f082620021c3565b9050919050565b6200220281620021e3565b82525050565b60006020820190506200221f6000830184620021f7565b92915050565b600080604083850312156200223f576200223e6200211e565b5b60006200224f858286016200214c565b925050602062002262858286016200214c565b9150509250929050565b600081519050919050565b600082825260208201905092915050565b60005b83811015620022a85780820151818401526020810190506200228b565b60008484015250505050565b6000601f19601f8301169050919050565b6000620022d2826200226c565b620022de818562002277565b9350620022f081856020860162002288565b620022fb81620022b4565b840191505092915050565b600060a0820190506200231d600083018862002195565b8181036020830152620023318187620022c5565b9050620023426040830186620021f7565b620023516060830185620021f7565b62002360608083018462002195565b9695505050505050565b600080fd5b600080fd5b600080fd5b60008083601f8401126200239257620023916200236a565b5b8235905067ffffffffffffffff811115620023b257620023b16200236f565b5b602083019150836001820283011115620023d157620023d062002374565b5b9250929050565b620023e381620021e3565b8114620023ef57600080fd5b50565b6000813590506200240381620023d8565b92915050565b600080600080606085870312156200242657620024256200211e565b5b600062002436878288016200214c565b945050602085013567ffffffffffffffff8111156200245a576200245962002123565b5b620024688782880162002379565b935093505060406200247d87828801620023f2565b91505092959194509250565b60008060008060608587031215620024a657620024a56200211e565b5b600085013567ffffffffffffffff811115620024c757620024c662002123565b5b620024d58782880162002379565b94509450506020620024ea878288016200214c565b9250506040620024fd878288016200214c565b91505092959194509250565b600080604083850312156200252357620025226200211e565b5b600062002533858286016200214c565b92505060206200254685828601620023f2565b9150509250929050565b60008115159050919050565b620025678162002550565b82525050565b60006020820190506200258460008301846200255c565b92915050565b60008060408385031215620025a457620025a36200211e565b5b6000620025b485828601620023f2565b9250506020620025c7858286016200214c565b9150509250929050565b620025dc8162002128565b82525050565b600082825260208201905092915050565b600062002600826200226c565b6200260c8185620025e2565b93506200261e81856020860162002288565b6200262981620022b4565b840191505092915050565b6200263f8162002550565b82525050565b600060e0830160008301516200265f6000860182620025d1565b5060208301518482036020860152620026798282620025f3565b9150506040830151620026906040860182620025d1565b506060830151620026a56060860182620025d1565b506080830151620026ba6080860182620025d1565b5060a0830151620026cf60a0860182620025d1565b5060c0830151620026e460c086018262002634565b508091505092915050565b600060208201905081810360008301526200270b818462002645565b905092915050565b6200271e81620021e3565b82525050565b600060a0830160008301516200273e6000860182620025d1565b5060208301518482036020860152620027588282620025f3565b91505060408301516200276f604086018262002713565b50606083015162002784606086018262002713565b506080830151620027996080860182620025d1565b508091505092915050565b60006020820190508181036000830152620027c0818462002724565b905092915050565b600060e082019050620027df600083018a62002195565b8181036020830152620027f38189620022c5565b905062002804604083018862002195565b62002813606083018762002195565b62002822608083018662002195565b6200283160a083018562002195565b6200284060c08301846200255c565b98975050505050505050565b6000602082840312156200286557620028646200211e565b5b60006200287584828501620023f2565b91505092915050565b7f4e487b7100000000000000000000000000000000000000000000000000000000600052602260045260246000fd5b60006002820490506001821680620028c657607f821691505b602082108103620028dc57620028db6200287e565b5b50919050565b7f4f6e6c79206d656d626572732063616e2063726561746520616e20456e747279600082015250565b60006200291a60208362002277565b91506200292782620028e2565b602082019050919050565b600060208201905081810360008301526200294d816200290b565b9050919050565b7f436f6e7465737420697320636c6f736564206f7220646f6573206e6f7420657860008201527f6973740000000000000000000000000000000000000000000000000000000000602082015250565b6000620029b260238362002277565b9150620029bf8262002954565b604082019050919050565b60006020820190508181036000830152620029e581620029a3565b9050919050565b7f496e737566696369656e7420526567697374726174696f6e2046656500000000600082015250565b600062002a24601c8362002277565b915062002a3182620029ec565b602082019050919050565b6000602082019050818103600083015262002a578162002a15565b9050919050565b7f4e487b7100000000000000000000000000000000000000000000000000000000600052601160045260246000fd5b600062002a9a8262002128565b915062002aa78362002128565b925082820190508082111562002ac25762002ac162002a5e565b5b92915050565b7f4e487b7100000000000000000000000000000000000000000000000000000000600052603260045260246000fd5b7f4e487b7100000000000000000000000000000000000000000000000000000000600052604160045260246000fd5b60008190508160005260206000209050919050565b60006020601f8301049050919050565b600082821b905092915050565b60006008830262002b8a7fffffffffffffffffffffffffffffffffffffffffffffffffffffffffffffffff8262002b4b565b62002b96868362002b4b565b95508019841693508086168417925050509392505050565b6000819050919050565b600062002bd962002bd362002bcd8462002128565b62002bae565b62002128565b9050919050565b6000819050919050565b62002bf58362002bb8565b62002c0d62002c048262002be0565b84845462002b58565b825550505050565b600090565b62002c2462002c15565b62002c3181848462002bea565b505050565b5b8181101562002c595762002c4d60008262002c1a565b60018101905062002c37565b5050565b601f82111562002ca85762002c728162002b26565b62002c7d8462002b3b565b8101602085101562002c8d578190505b62002ca562002c9c8562002b3b565b83018262002c36565b50505b505050565b600082821c905092915050565b600062002ccd6000198460080262002cad565b1980831691505092915050565b600062002ce8838362002cba565b9150826002028217905092915050565b62002d03826200226c565b67ffffffffffffffff81111562002d1f5762002d1e62002af7565b5b62002d2b8254620028ad565b62002d3882828562002c5d565b600060209050601f83116001811462002d70576000841562002d5b578287015190505b62002d67858262002cda565b86555062002dd7565b601f19841662002d808662002b26565b60005b8281101562002daa5784890151825560018201915060208501945060208101905062002d83565b8683101562002dca578489015162002dc6601f89168262002cba565b8355505b6001600288020188555050505b505050505050565b7f4f6e6c79206f776e65722063616e2063616c6c20746869732066756e6374696f60008201527f6e00000000000000000000000000000000000000000000000000000000000000602082015250565b600062002e3d60218362002277565b915062002e4a8262002ddf565b604082019050919050565b6000602082019050818103600083015262002e708162002e2e565b9050919050565b600062002e848262002128565b91507fffffffffffffffffffffffffffffffffffffffffffffffffffffffffffffffff820362002eb95762002eb862002a5e565b5b600182019050919050565b600060408201905062002edb6000830185620021f7565b62002eea602083018462002195565b9392505050565b7f436f6e7465737420646f65736e2774206578697374206f72206973206f766572600082015250565b600062002f2960208362002277565b915062002f368262002ef1565b602082019050919050565b6000602082019050818103600083015262002f5c8162002f1a565b9050919050565b600081905092915050565b50565b600062002f8060008362002f63565b915062002f8d8262002f6e565b600082019050919050565b600062002fa58262002f71565b9150819050919050565b7f4661696c656420746f2073656e64205265776172640000000000000000000000600082015250565b600062002fe760158362002277565b915062002ff48262002faf565b602082019050919050565b600060208201905081810360008301526200301a8162002fd8565b9050919050565b7f456e74727920646f65736e277420657869737400000000000000000000000000600082015250565b60006200305960138362002277565b9150620030668262003021565b602082019050919050565b600060208201905081810360008301526200308c816200304a565b9050919050565b7f4f6e6c79206d656d626572732063616e20766f74650000000000000000000000600082015250565b6000620030cb60158362002277565b9150620030d88262003093565b602082019050919050565b60006020820190508181036000830152620030fe81620030bc565b9050919050565b600081519050620031168162002132565b92915050565b6000602082840312156200313557620031346200211e565b5b6000620031458482850162003105565b91505092915050565b7f496e73756666696369656e7420546f6b656e20616d6f756e7400000000000000600082015250565b60006200318660198362002277565b915062003193826200314e565b602082019050919050565b60006020820190508181036000830152620031b98162003177565b9050919050565b7f416464726573732068617320616c726561647920566f74656400000000000000600082015250565b6000620031f860198362002277565b91506200320582620031c0565b602082019050919050565b600060208201905081810360008301526200322b81620031e9565b9050919050565b7f496e697469616c697a61626c653a20636f6e747261637420697320616c72656160008201527f647920696e697469616c697a6564000000000000000000000000000000000000602082015250565b600062003290602e8362002277565b91506200329d8262003232565b604082019050919050565b60006020820190508181036000830152620032c38162003281565b9050919050565b6000819050919050565b600060ff82169050919050565b600062003302620032fc620032f684620032ca565b62002bae565b620032d4565b9050919050565b6200331481620032e1565b82525050565b600060208201905062003331600083018462003309565b9291505056fe60806040523480156200001157600080fd5b506040518060400160405280600a81526020017f5353414320544f4b454e000000000000000000000000000000000000000000008152506040518060400160405280600381526020017f534143000000000000000000000000000000000000000000000000000000000081525081600390816200008f9190620005cf565b508060049081620000a19190620005cf565b505050620000c4620000b86200010760201b60201c565b6200010f60201b60201c565b6200010133620000d9620001d560201b60201c565b600a620000e7919062000846565b6064620000f5919062000897565b620001de60201b60201c565b620009ce565b600033905090565b6000600560009054906101000a900473ffffffffffffffffffffffffffffffffffffffff16905081600560006101000a81548173ffffffffffffffffffffffffffffffffffffffff021916908373ffffffffffffffffffffffffffffffffffffffff1602179055508173ffffffffffffffffffffffffffffffffffffffff168173ffffffffffffffffffffffffffffffffffffffff167f8be0079c531659141344cd1fd0a4f28419497f9722a3daafe3b4186f6b6457e060405160405180910390a35050565b60006012905090565b600073ffffffffffffffffffffffffffffffffffffffff168273ffffffffffffffffffffffffffffffffffffffff160362000250576040517f08c379a0000000000000000000000000000000000000000000000000000000008152600401620002479062000943565b60405180910390fd5b62000264600083836200034b60201b60201c565b806002600082825462000278919062000965565b92505081905550806000808473ffffffffffffffffffffffffffffffffffffffff1673ffffffffffffffffffffffffffffffffffffffff168152602001908152602001600020600082825401925050819055508173ffffffffffffffffffffffffffffffffffffffff16600073ffffffffffffffffffffffffffffffffffffffff167fddf252ad1be2c89b69c2b068fc378daa952ba7f163c4a11628f55a4df523b3ef836040516200032b9190620009b1565b60405180910390a362000347600083836200035060201b60201c565b5050565b505050565b505050565b600081519050919050565b7f4e487b7100000000000000000000000000000000000000000000000000000000600052604160045260246000fd5b7f4e487b7100000000000000000000000000000000000000000000000000000000600052602260045260246000fd5b60006002820490506001821680620003d757607f821691505b602082108103620003ed57620003ec6200038f565b5b50919050565b60008190508160005260206000209050919050565b60006020601f8301049050919050565b600082821b905092915050565b600060088302620004577fffffffffffffffffffffffffffffffffffffffffffffffffffffffffffffffff8262000418565b62000463868362000418565b95508019841693508086168417925050509392505050565b6000819050919050565b6000819050919050565b6000620004b0620004aa620004a4846200047b565b62000485565b6200047b565b9050919050565b6000819050919050565b620004cc836200048f565b620004e4620004db82620004b7565b84845462000425565b825550505050565b600090565b620004fb620004ec565b62000508818484620004c1565b505050565b5b81811015620005305762000524600082620004f1565b6001810190506200050e565b5050565b601f8211156200057f576200054981620003f3565b620005548462000408565b8101602085101562000564578190505b6200057c620005738562000408565b8301826200050d565b50505b505050565b600082821c905092915050565b6000620005a46000198460080262000584565b1980831691505092915050565b6000620005bf838362000591565b9150826002028217905092915050565b620005da8262000355565b67ffffffffffffffff811115620005f657620005f562000360565b5b620006028254620003be565b6200060f82828562000534565b600060209050601f83116001811462000647576000841562000632578287015190505b6200063e8582620005b1565b865550620006ae565b601f1984166200065786620003f3565b60005b8281101562000681578489015182556001820191506020850194506020810190506200065a565b86831015620006a157848901516200069d601f89168262000591565b8355505b6001600288020188555050505b505050505050565b7f4e487b7100000000000000000000000000000000000000000000000000000000600052601160045260246000fd5b60008160011c9050919050565b6000808291508390505b600185111562000744578086048111156200071c576200071b620006b6565b5b60018516156200072c5780820291505b80810290506200073c85620006e5565b9450620006fc565b94509492505050565b6000826200075f576001905062000832565b816200076f576000905062000832565b81600181146200078857600281146200079357620007c9565b600191505062000832565b60ff841115620007a857620007a7620006b6565b5b8360020a915084821115620007c257620007c1620006b6565b5b5062000832565b5060208310610133831016604e8410600b8410161715620008035782820a905083811115620007fd57620007fc620006b6565b5b62000832565b620008128484846001620006f2565b925090508184048111156200082c576200082b620006b6565b5b81810290505b9392505050565b600060ff82169050919050565b600062000853826200047b565b9150620008608362000839565b92506200088f7fffffffffffffffffffffffffffffffffffffffffffffffffffffffffffffffff84846200074d565b905092915050565b6000620008a4826200047b565b9150620008b1836200047b565b9250828202620008c1816200047b565b91508282048414831517620008db57620008da620006b6565b5b5092915050565b600082825260208201905092915050565b7f45524332303a206d696e7420746f20746865207a65726f206164647265737300600082015250565b60006200092b601f83620008e2565b91506200093882620008f3565b602082019050919050565b600060208201905081810360008301526200095e816200091c565b9050919050565b600062000972826200047b565b91506200097f836200047b565b92508282019050808211156200099a5762000999620006b6565b5b92915050565b620009ab816200047b565b82525050565b6000602082019050620009c86000830184620009a0565b92915050565b611b8b80620009de6000396000f3fe608060405234801561001057600080fd5b506004361061010b5760003560e01c806370a08231116100a257806395d89b411161007157806395d89b41146102a6578063a457c2d7146102c4578063a9059cbb146102f4578063dd62ed3e14610324578063f2fde38b146103545761010b565b806370a0823114610232578063715018a61461026257806379cc67901461026c5780638da5cb5b146102885761010b565b8063313ce567116100de578063313ce567146101ac57806339509351146101ca57806340c10f19146101fa57806342966c68146102165761010b565b806306fdde0314610110578063095ea7b31461012e57806318160ddd1461015e57806323b872dd1461017c575b600080fd5b610118610370565b6040516101259190611183565b60405180910390f35b6101486004803603810190610143919061123e565b610402565b6040516101559190611299565b60405180910390f35b610166610425565b60405161017391906112c3565b60405180910390f35b610196600480360381019061019191906112de565b61042f565b6040516101a39190611299565b60405180910390f35b6101b461045e565b6040516101c1919061134d565b60405180910390f35b6101e460048036038101906101df919061123e565b610467565b6040516101f19190611299565b60405180910390f35b610214600480360381019061020f919061123e565b61049e565b005b610230600480360381019061022b9190611368565b6104bf565b005b61024c60048036038101906102479190611395565b6104d3565b60405161025991906112c3565b60405180910390f35b61026a61051b565b005b6102866004803603810190610281919061123e565b61052f565b005b61029061054f565b60405161029d91906113d1565b60405180910390f35b6102ae610579565b6040516102bb9190611183565b60405180910390f35b6102de60048036038101906102d9919061123e565b61060b565b6040516102eb9190611299565b60405180910390f35b61030e6004803603810190610309919061123e565b610682565b60405161031b9190611299565b60405180910390f35b61033e600480360381019061033991906113ec565b6106a5565b60405161034b91906112c3565b60405180910390f35b61036e60048036038101906103699190611395565b61072c565b005b60606003805461037f9061145b565b80601f01602080910402602001604051908101604052809291908181526020018280546103ab9061145b565b80156103f85780601f106103cd576101008083540402835291602001916103f8565b820191906000526020600020905b8154815290600101906020018083116103db57829003601f168201915b5050505050905090565b60008061040d6107af565b905061041a8185856107b7565b600191505092915050565b6000600254905090565b60008061043a6107af565b9050610447858285610980565b610452858585610a0c565b60019150509392505050565b60006012905090565b6000806104726107af565b905061049381858561048485896106a5565b61048e91906114bb565b6107b7565b600191505092915050565b6104a6610c82565b6104b08282610d00565b6104bb8233836107b7565b5050565b6104d06104ca6107af565b82610e56565b50565b60008060008373ffffffffffffffffffffffffffffffffffffffff1673ffffffffffffffffffffffffffffffffffffffff168152602001908152602001600020549050919050565b610523610c82565b61052d6000611023565b565b6105418261053b6107af565b83610980565b61054b8282610e56565b5050565b6000600560009054906101000a900473ffffffffffffffffffffffffffffffffffffffff16905090565b6060600480546105889061145b565b80601f01602080910402602001604051908101604052809291908181526020018280546105b49061145b565b80156106015780601f106105d657610100808354040283529160200191610601565b820191906000526020600020905b8154815290600101906020018083116105e457829003601f168201915b5050505050905090565b6000806106166107af565b9050600061062482866106a5565b905083811015610669576040517f08c379a000000000000000000000000000000000000000000000000000000000815260040161066090611561565b60405180910390fd5b61067682868684036107b7565b60019250505092915050565b60008061068d6107af565b905061069a818585610a0c565b600191505092915050565b6000600160008473ffffffffffffffffffffffffffffffffffffffff1673ffffffffffffffffffffffffffffffffffffffff16815260200190815260200160002060008373ffffffffffffffffffffffffffffffffffffffff1673ffffffffffffffffffffffffffffffffffffffff16815260200190815260200160002054905092915050565b610734610c82565b600073ffffffffffffffffffffffffffffffffffffffff168173ffffffffffffffffffffffffffffffffffffffff16036107a3576040517f08c379a000000000000000000000000000000000000000000000000000000000815260040161079a906115f3565b60405180910390fd5b6107ac81611023565b50565b600033905090565b600073ffffffffffffffffffffffffffffffffffffffff168373ffffffffffffffffffffffffffffffffffffffff1603610826576040517f08c379a000000000000000000000000000000000000000000000000000000000815260040161081d90611685565b60405180910390fd5b600073ffffffffffffffffffffffffffffffffffffffff168273ffffffffffffffffffffffffffffffffffffffff1603610895576040517f08c379a000000000000000000000000000000000000000000000000000000000815260040161088c90611717565b60405180910390fd5b80600160008573ffffffffffffffffffffffffffffffffffffffff1673ffffffffffffffffffffffffffffffffffffffff16815260200190815260200160002060008473ffffffffffffffffffffffffffffffffffffffff1673ffffffffffffffffffffffffffffffffffffffff168152602001908152602001600020819055508173ffffffffffffffffffffffffffffffffffffffff168373ffffffffffffffffffffffffffffffffffffffff167f8c5be1e5ebec7d5bd14f71427d1e84f3dd0314c0f7b2291e5b200ac8c7c3b9258360405161097391906112c3565b60405180910390a3505050565b600061098c84846106a5565b90507fffffffffffffffffffffffffffffffffffffffffffffffffffffffffffffffff8114610a0657818110156109f8576040517f08c379a00000000000000000000000000000000000000000000000000000000081526004016109ef90611783565b60405180910390fd5b610a0584848484036107b7565b5b50505050565b600073ffffffffffffffffffffffffffffffffffffffff168373ffffffffffffffffffffffffffffffffffffffff1603610a7b576040517f08c379a0000000000000000000000000000000000000000000000000000000008152600401610a7290611815565b60405180910390fd5b600073ffffffffffffffffffffffffffffffffffffffff168273ffffffffffffffffffffffffffffffffffffffff1603610aea576040517f08c379a0000000000000000000000000000000000000000000000000000000008152600401610ae1906118a7565b60405180910390fd5b610af58383836110e9565b60008060008573ffffffffffffffffffffffffffffffffffffffff1673ffffffffffffffffffffffffffffffffffffffff16815260200190815260200160002054905081811015610b7b576040517f08c379a0000000000000000000000000000000000000000000000000000000008152600401610b7290611939565b60405180910390fd5b8181036000808673ffffffffffffffffffffffffffffffffffffffff1673ffffffffffffffffffffffffffffffffffffffff16815260200190815260200160002081905550816000808573ffffffffffffffffffffffffffffffffffffffff1673ffffffffffffffffffffffffffffffffffffffff168152602001908152602001600020600082825401925050819055508273ffffffffffffffffffffffffffffffffffffffff168473ffffffffffffffffffffffffffffffffffffffff167fddf252ad1be2c89b69c2b068fc378daa952ba7f163c4a11628f55a4df523b3ef84604051610c6991906112c3565b60405180910390a3610c7c8484846110ee565b50505050565b610c8a6107af565b73ffffffffffffffffffffffffffffffffffffffff16610ca861054f565b73ffffffffffffffffffffffffffffffffffffffff1614610cfe576040517f08c379a0000000000000000000000000000000000000000000000000000000008152600401610cf5906119a5565b60405180910390fd5b565b600073ffffffffffffffffffffffffffffffffffffffff168273ffffffffffffffffffffffffffffffffffffffff1603610d6f576040517f08c379a0000000000000000000000000000000000000000000000000000000008152600401610d6690611a11565b60405180910390fd5b610d7b600083836110e9565b8060026000828254610d8d91906114bb565b92505081905550806000808473ffffffffffffffffffffffffffffffffffffffff1673ffffffffffffffffffffffffffffffffffffffff168152602001908152602001600020600082825401925050819055508173ffffffffffffffffffffffffffffffffffffffff16600073ffffffffffffffffffffffffffffffffffffffff167fddf252ad1be2c89b69c2b068fc378daa952ba7f163c4a11628f55a4df523b3ef83604051610e3e91906112c3565b60405180910390a3610e52600083836110ee565b5050565b600073ffffffffffffffffffffffffffffffffffffffff168273ffffffffffffffffffffffffffffffffffffffff1603610ec5576040517f08c379a0000000000000000000000000000000000000000000000000000000008152600401610ebc90611aa3565b60405180910390fd5b610ed1826000836110e9565b60008060008473ffffffffffffffffffffffffffffffffffffffff1673ffffffffffffffffffffffffffffffffffffffff16815260200190815260200160002054905081811015610f57576040517f08c379a0000000000000000000000000000000000000000000000000000000008152600401610f4e90611b35565b60405180910390fd5b8181036000808573ffffffffffffffffffffffffffffffffffffffff1673ffffffffffffffffffffffffffffffffffffffff1681526020019081526020016000208190555081600260008282540392505081905550600073ffffffffffffffffffffffffffffffffffffffff168373ffffffffffffffffffffffffffffffffffffffff167fddf252ad1be2c89b69c2b068fc378daa952ba7f163c4a11628f55a4df523b3ef8460405161100a91906112c3565b60405180910390a361101e836000846110ee565b505050565b6000600560009054906101000a900473ffffffffffffffffffffffffffffffffffffffff16905081600560006101000a81548173ffffffffffffffffffffffffffffffffffffffff021916908373ffffffffffffffffffffffffffffffffffffffff1602179055508173ffffffffffffffffffffffffffffffffffffffff168173ffffffffffffffffffffffffffffffffffffffff167f8be0079c531659141344cd1fd0a4f28419497f9722a3daafe3b4186f6b6457e060405160405180910390a35050565b505050565b505050565b600081519050919050565b600082825260208201905092915050565b60005b8381101561112d578082015181840152602081019050611112565b60008484015250505050565b6000601f19601f8301169050919050565b6000611155826110f3565b61115f81856110fe565b935061116f81856020860161110f565b61117881611139565b840191505092915050565b6000602082019050818103600083015261119d818461114a565b905092915050565b600080fd5b600073ffffffffffffffffffffffffffffffffffffffff82169050919050565b60006111d5826111aa565b9050919050565b6111e5816111ca565b81146111f057600080fd5b50565b600081359050611202816111dc565b92915050565b6000819050919050565b61121b81611208565b811461122657600080fd5b50565b60008135905061123881611212565b92915050565b60008060408385031215611255576112546111a5565b5b6000611263858286016111f3565b925050602061127485828601611229565b9150509250929050565b60008115159050919050565b6112938161127e565b82525050565b60006020820190506112ae600083018461128a565b92915050565b6112bd81611208565b82525050565b60006020820190506112d860008301846112b4565b92915050565b6000806000606084860312156112f7576112f66111a5565b5b6000611305868287016111f3565b9350506020611316868287016111f3565b925050604061132786828701611229565b9150509250925092565b600060ff82169050919050565b61134781611331565b82525050565b6000602082019050611362600083018461133e565b92915050565b60006020828403121561137e5761137d6111a5565b5b600061138c84828501611229565b91505092915050565b6000602082840312156113ab576113aa6111a5565b5b60006113b9848285016111f3565b91505092915050565b6113cb816111ca565b82525050565b60006020820190506113e660008301846113c2565b92915050565b60008060408385031215611403576114026111a5565b5b6000611411858286016111f3565b9250506020611422858286016111f3565b9150509250929050565b7f4e487b7100000000000000000000000000000000000000000000000000000000600052602260045260246000fd5b6000600282049050600182168061147357607f821691505b6020821081036114865761148561142c565b5b50919050565b7f4e487b7100000000000000000000000000000000000000000000000000000000600052601160045260246000fd5b60006114c682611208565b91506114d183611208565b92508282019050808211156114e9576114e861148c565b5b92915050565b7f45524332303a2064656372656173656420616c6c6f77616e63652062656c6f7760008201527f207a65726f000000000000000000000000000000000000000000000000000000602082015250565b600061154b6025836110fe565b9150611556826114ef565b604082019050919050565b6000602082019050818103600083015261157a8161153e565b9050919050565b7f4f776e61626c653a206e6577206f776e657220697320746865207a65726f206160008201527f6464726573730000000000000000000000000000000000000000000000000000602082015250565b60006115dd6026836110fe565b91506115e882611581565b604082019050919050565b6000602082019050818103600083015261160c816115d0565b9050919050565b7f45524332303a20617070726f76652066726f6d20746865207a65726f2061646460008201527f7265737300000000000000000000000000000000000000000000000000000000602082015250565b600061166f6024836110fe565b915061167a82611613565b604082019050919050565b6000602082019050818103600083015261169e81611662565b9050919050565b7f45524332303a20617070726f766520746f20746865207a65726f20616464726560008201527f7373000000000000000000000000000000000000000000000000000000000000602082015250565b60006117016022836110fe565b915061170c826116a5565b604082019050919050565b60006020820190508181036000830152611730816116f4565b9050919050565b7f45524332303a20696e73756666696369656e7420616c6c6f77616e6365000000600082015250565b600061176d601d836110fe565b915061177882611737565b602082019050919050565b6000602082019050818103600083015261179c81611760565b9050919050565b7f45524332303a207472616e736665722066726f6d20746865207a65726f20616460008201527f6472657373000000000000000000000000000000000000000000000000000000602082015250565b60006117ff6025836110fe565b915061180a826117a3565b604082019050919050565b6000602082019050818103600083015261182e816117f2565b9050919050565b7f45524332303a207472616e7366657220746f20746865207a65726f206164647260008201527f6573730000000000000000000000000000000000000000000000000000000000602082015250565b60006118916023836110fe565b915061189c82611835565b604082019050919050565b600060208201905081810360008301526118c081611884565b9050919050565b7f45524332303a207472616e7366657220616d6f756e742065786365656473206260008201527f616c616e63650000000000000000000000000000000000000000000000000000602082015250565b60006119236026836110fe565b915061192e826118c7565b604082019050919050565b6000602082019050818103600083015261195281611916565b9050919050565b7f4f776e61626c653a2063616c6c6572206973206e6f7420746865206f776e6572600082015250565b600061198f6020836110fe565b915061199a82611959565b602082019050919050565b600060208201905081810360008301526119be81611982565b9050919050565b7f45524332303a206d696e7420746f20746865207a65726f206164647265737300600082015250565b60006119fb601f836110fe565b9150611a06826119c5565b602082019050919050565b60006020820190508181036000830152611a2a816119ee565b9050919050565b7f45524332303a206275726e2066726f6d20746865207a65726f2061646472657360008201527f7300000000000000000000000000000000000000000000000000000000000000602082015250565b6000611a8d6021836110fe565b9150611a9882611a31565b604082019050919050565b60006020820190508181036000830152611abc81611a80565b9050919050565b7f45524332303a206275726e20616d6f756e7420657863656564732062616c616e60008201527f6365000000000000000000000000000000000000000000000000000000000000602082015250565b6000611b1f6022836110fe565b9150611b2a82611ac3565b604082019050919050565b60006020820190508181036000830152611b4e81611b12565b905091905056fea264697066735822122069367c525bf4d3c38c588c47e7747af43ad86c03d2cda569bab54cc4decc3b7b64736f6c63430008110033a264697066735822122025838b40e0689bd36e3e181cb8ea5bb3bfc00353b01119d6516fde701eb1839d64736f6c63430008110033",
  "linkReferences": {},
  "deployedLinkReferences": {}
}