{
  "_format": "hh-sol-artifact-1",
  "contractName": "SsacCommunityV2",
  "sourceName": "contracts/SsacCommunityV2.sol",
  "abi": [
    {
      "anonymous": false,
      "inputs": [
        {
          "indexed": false,
          "internalType": "uint8",
          "name": "version",
          "type": "uint8"
        }
      ],
      "name": "Initialized",
      "type": "event"
    },
    {
      "inputs": [],
      "name": "addMember",
      "outputs": [],
      "stateMutability": "nonpayable",
      "type": "function"
    },
    {
      "inputs": [
        {
          "internalType": "uint256",
          "name": "",
          "type": "uint256"
        },
        {
          "internalType": "uint256",
          "name": "",
          "type": "uint256"
        }
      ],
      "name": "contestVoters",
      "outputs": [
        {
          "internalType": "address",
          "name": "",
          "type": "address"
        }
      ],
      "stateMutability": "view",
      "type": "function"
    },
    {
      "inputs": [
        {
          "internalType": "uint256",
          "name": "",
          "type": "uint256"
        }
      ],
      "name": "contestWinner",
      "outputs": [
        {
          "internalType": "uint256",
          "name": "",
          "type": "uint256"
        }
      ],
      "stateMutability": "view",
      "type": "function"
    },
    {
      "inputs": [
        {
          "internalType": "uint256",
          "name": "",
          "type": "uint256"
        }
      ],
      "name": "contests",
      "outputs": [
        {
          "internalType": "uint256",
          "name": "contestId",
          "type": "uint256"
        },
        {
          "internalType": "string",
          "name": "contestName",
          "type": "string"
        },
        {
          "internalType": "uint256",
          "name": "registrationFee",
          "type": "uint256"
        },
        {
          "internalType": "uint256",
          "name": "tokenReward",
          "type": "uint256"
        },
        {
          "internalType": "uint256",
          "name": "prizePool",
          "type": "uint256"
        },
        {
          "internalType": "uint256",
          "name": "startDate",
          "type": "uint256"
        },
        {
          "internalType": "bool",
          "name": "open",
          "type": "bool"
        }
      ],
      "stateMutability": "view",
      "type": "function"
    },
    {
      "inputs": [
        {
          "internalType": "string",
          "name": "_name",
          "type": "string"
        },
        {
          "internalType": "uint256",
          "name": "_registrationFee",
          "type": "uint256"
        },
        {
          "internalType": "uint256",
          "name": "_tokenReward",
          "type": "uint256"
        }
      ],
      "name": "createContest",
      "outputs": [],
      "stateMutability": "nonpayable",
      "type": "function"
    },
    {
      "inputs": [
        {
          "internalType": "uint256",
          "name": "_contestId",
          "type": "uint256"
        },
        {
          "internalType": "string",
          "name": "_title",
          "type": "string"
        },
        {
          "internalType": "address",
          "name": "_NFT_Address",
          "type": "address"
        },
        {
          "internalType": "uint256",
          "name": "_NFT_Id",
          "type": "uint256"
        }
      ],
      "name": "createEntry",
      "outputs": [],
      "stateMutability": "payable",
      "type": "function"
    },
    {
      "inputs": [
        {
          "internalType": "uint256",
          "name": "_contestId",
          "type": "uint256"
        }
      ],
      "name": "endContest",
      "outputs": [],
      "stateMutability": "nonpayable",
      "type": "function"
    },
    {
      "inputs": [
        {
          "internalType": "uint256",
          "name": "",
          "type": "uint256"
        },
        {
          "internalType": "uint256",
          "name": "",
          "type": "uint256"
        }
      ],
      "name": "entries",
      "outputs": [
        {
          "internalType": "uint256",
          "name": "entryId",
          "type": "uint256"
        },
        {
          "internalType": "string",
          "name": "entryTitle",
          "type": "string"
        },
        {
          "internalType": "address",
          "name": "entrantAddress",
          "type": "address"
        },
        {
          "internalType": "address",
          "name": "NFT_Address",
          "type": "address"
        },
        {
          "internalType": "uint256",
          "name": "noOfVotes",
          "type": "uint256"
        },
        {
          "internalType": "uint256",
          "name": "NFT_Id",
          "type": "uint256"
        }
      ],
      "stateMutability": "view",
      "type": "function"
    },
    {
      "inputs": [
        {
          "internalType": "uint256",
          "name": "",
          "type": "uint256"
        }
      ],
      "name": "entriesCount",
      "outputs": [
        {
          "internalType": "uint256",
          "name": "",
          "type": "uint256"
        }
      ],
      "stateMutability": "view",
      "type": "function"
    },
    {
      "inputs": [
        {
          "internalType": "uint256",
          "name": "_contestId",
          "type": "uint256"
        }
      ],
      "name": "getContest",
      "outputs": [
        {
          "components": [
            {
              "internalType": "uint256",
              "name": "contestId",
              "type": "uint256"
            },
            {
              "internalType": "string",
              "name": "contestName",
              "type": "string"
            },
            {
              "internalType": "uint256",
              "name": "registrationFee",
              "type": "uint256"
            },
            {
              "internalType": "uint256",
              "name": "tokenReward",
              "type": "uint256"
            },
            {
              "internalType": "uint256",
              "name": "prizePool",
              "type": "uint256"
            },
            {
              "internalType": "uint256",
              "name": "startDate",
              "type": "uint256"
            },
            {
              "internalType": "bool",
              "name": "open",
              "type": "bool"
            }
          ],
          "internalType": "struct SsacCommunityV2.Contest",
          "name": "",
          "type": "tuple"
        }
      ],
      "stateMutability": "view",
      "type": "function"
    },
    {
      "inputs": [
        {
          "internalType": "uint256",
          "name": "_contestId",
          "type": "uint256"
        }
      ],
      "name": "getContestPrizePool",
      "outputs": [
        {
          "internalType": "uint256",
          "name": "",
          "type": "uint256"
        }
      ],
      "stateMutability": "view",
      "type": "function"
    },
    {
      "inputs": [
        {
          "internalType": "uint256",
          "name": "_contestId",
          "type": "uint256"
        }
      ],
      "name": "getContestWinner",
      "outputs": [
        {
          "internalType": "uint256",
          "name": "",
          "type": "uint256"
        }
      ],
      "stateMutability": "view",
      "type": "function"
    },
    {
      "inputs": [
        {
          "internalType": "uint256",
          "name": "_contestId",
          "type": "uint256"
        },
        {
          "internalType": "uint256",
          "name": "_entryId",
          "type": "uint256"
        }
      ],
      "name": "getEntry",
      "outputs": [
        {
          "components": [
            {
              "internalType": "uint256",
              "name": "entryId",
              "type": "uint256"
            },
            {
              "internalType": "string",
              "name": "entryTitle",
              "type": "string"
            },
            {
              "internalType": "address",
              "name": "entrantAddress",
              "type": "address"
            },
            {
              "internalType": "address",
              "name": "NFT_Address",
              "type": "address"
            },
            {
              "internalType": "uint256",
              "name": "noOfVotes",
              "type": "uint256"
            },
            {
              "internalType": "uint256",
              "name": "NFT_Id",
              "type": "uint256"
            }
          ],
          "internalType": "struct SsacCommunityV2.Entry",
          "name": "",
          "type": "tuple"
        }
      ],
      "stateMutability": "view",
      "type": "function"
    },
    {
      "inputs": [
        {
          "internalType": "uint256",
          "name": "_contestId",
          "type": "uint256"
        }
      ],
      "name": "getEntryWithHighestVote",
      "outputs": [
        {
          "internalType": "uint256",
          "name": "",
          "type": "uint256"
        }
      ],
      "stateMutability": "view",
      "type": "function"
    },
    {
      "inputs": [],
      "name": "getNoOfContests",
      "outputs": [
        {
          "internalType": "uint256",
          "name": "",
          "type": "uint256"
        }
      ],
      "stateMutability": "view",
      "type": "function"
    },
    {
      "inputs": [
        {
          "internalType": "uint256",
          "name": "_contestId",
          "type": "uint256"
        }
      ],
      "name": "getNoOfEntries",
      "outputs": [
        {
          "internalType": "uint256",
          "name": "",
          "type": "uint256"
        }
      ],
      "stateMutability": "view",
      "type": "function"
    },
    {
      "inputs": [
        {
          "internalType": "uint256",
          "name": "_contestId",
          "type": "uint256"
        },
        {
          "internalType": "uint256",
          "name": "_entryId",
          "type": "uint256"
        }
      ],
      "name": "getNoOfVotes",
      "outputs": [
        {
          "internalType": "uint256",
          "name": "",
          "type": "uint256"
        }
      ],
      "stateMutability": "view",
      "type": "function"
    },
    {
      "inputs": [],
      "name": "getTokenAddress",
      "outputs": [
        {
          "internalType": "address",
          "name": "",
          "type": "address"
        }
      ],
      "stateMutability": "view",
      "type": "function"
    },
    {
      "inputs": [
        {
          "internalType": "uint256",
          "name": "_contestId",
          "type": "uint256"
        },
        {
          "internalType": "address",
          "name": "_addr",
          "type": "address"
        }
      ],
      "name": "hasVoted",
      "outputs": [
        {
          "internalType": "bool",
          "name": "",
          "type": "bool"
        }
      ],
      "stateMutability": "view",
      "type": "function"
    },
    {
      "inputs": [
        {
          "internalType": "uint256",
          "name": "_votingCost",
          "type": "uint256"
        }
      ],
      "name": "initialize",
      "outputs": [],
      "stateMutability": "nonpayable",
      "type": "function"
    },
    {
      "inputs": [
        {
          "internalType": "uint256",
          "name": "_contestId",
          "type": "uint256"
        }
      ],
      "name": "isContest",
      "outputs": [
        {
          "internalType": "bool",
          "name": "",
          "type": "bool"
        }
      ],
      "stateMutability": "view",
      "type": "function"
    },
    {
      "inputs": [
        {
          "internalType": "uint256",
          "name": "_contestId",
          "type": "uint256"
        },
        {
          "internalType": "uint256",
          "name": "_entryId",
          "type": "uint256"
        }
      ],
      "name": "isEntry",
      "outputs": [
        {
          "internalType": "bool",
          "name": "",
          "type": "bool"
        }
      ],
      "stateMutability": "view",
      "type": "function"
    },
    {
      "inputs": [
        {
          "internalType": "address",
          "name": "_addr",
          "type": "address"
        }
      ],
      "name": "isMember",
      "outputs": [
        {
          "internalType": "bool",
          "name": "",
          "type": "bool"
        }
      ],
      "stateMutability": "view",
      "type": "function"
    },
    {
      "inputs": [
        {
          "internalType": "uint256",
          "name": "",
          "type": "uint256"
        }
      ],
      "name": "members",
      "outputs": [
        {
          "internalType": "address",
          "name": "",
          "type": "address"
        }
      ],
      "stateMutability": "view",
      "type": "function"
    },
    {
      "inputs": [
        {
          "internalType": "address",
          "name": "_to",
          "type": "address"
        },
        {
          "internalType": "uint256",
          "name": "_amount",
          "type": "uint256"
        }
      ],
      "name": "mintToken",
      "outputs": [],
      "stateMutability": "nonpayable",
      "type": "function"
    },
    {
      "inputs": [],
      "name": "owner",
      "outputs": [
        {
          "internalType": "address",
          "name": "",
          "type": "address"
        }
      ],
      "stateMutability": "view",
      "type": "function"
    },
    {
      "inputs": [
        {
          "internalType": "uint256",
          "name": "_contestId",
          "type": "uint256"
        },
        {
          "internalType": "uint256",
          "name": "_entryId",
          "type": "uint256"
        }
      ],
      "name": "vote",
      "outputs": [],
      "stateMutability": "nonpayable",
      "type": "function"
    }
  ],
  "bytecode": "0x608060405234801561001057600080fd5b5061593a806100206000396000f3fe608060405260043610620001c45760003560e01c806359f444eb116200010357806398ba676d1162000097578063afa984d0116200006d578063afa984d0146200073a578063b384abef1462000768578063cd51b9391462000796578063fe4b84df14620007da57620001c4565b806398ba676d14620006685780639d7ed73814620006ac578063a230c52414620006f657620001c4565b80638571700111620000d957806385717001146200056c5780638cc7865c14620005b05780638da5cb5b14620005f4578063904b9f72146200062457620001c4565b806359f444eb14620004b65780635daf08ca14620004fa57806379c65068146200053e57620001c4565b80631b9934ec116200017b57806334da9de7116200015157806334da9de714620003ca57806343859632146200040e57806356beef8c14620004525780635886d7db146200047257620001c4565b80631b9934ec14620003145780631ef72d3e1462000358578063308b0441146200039c57620001c4565b8063029d010d14620001c95780630dcbacdb14620001e35780630e5a8c7c146200022757806310fe9ae8146200025757806317b937e614620002875780631a85afbc14620002d0575b600080fd5b348015620001d657600080fd5b50620001e162000808565b005b348015620001f057600080fd5b506200020f60048036038101906200020991906200218c565b62000889565b6040516200021e9190620021cf565b60405180910390f35b3480156200023457600080fd5b506200023f620008a6565b6040516200024e9190620021cf565b60405180910390f35b3480156200026457600080fd5b506200026f620008b3565b6040516200027e919062002231565b60405180910390f35b3480156200029457600080fd5b50620002b36004803603810190620002ad91906200224e565b620008dc565b604051620002c7969594939291906200232f565b60405180910390f35b348015620002dd57600080fd5b50620002fc6004803603810190620002f691906200218c565b620009f5565b6040516200030b9190620021cf565b60405180910390f35b3480156200032157600080fd5b506200034060048036038101906200033a91906200218c565b62000a12565b6040516200034f9190620021cf565b60405180910390f35b3480156200036557600080fd5b506200038460048036038101906200037e91906200218c565b62000a2a565b604051620003939190620021cf565b60405180910390f35b348015620003a957600080fd5b50620003c86004803603810190620003c2919062002411565b62000a42565b005b348015620003d757600080fd5b50620003f66004803603810190620003f091906200224e565b62000c26565b60405162000405919062002231565b60405180910390f35b3480156200041b57600080fd5b506200043a6004803603810190620004349190620024c2565b62000c75565b60405162000449919062002526565b60405180910390f35b6200047060048036038101906200046a919062002543565b62000d4b565b005b3480156200047f57600080fd5b506200049e60048036038101906200049891906200218c565b62001056565b604051620004ad919062002526565b60405180910390f35b348015620004c357600080fd5b50620004e26004803603810190620004dc91906200218c565b62001095565b604051620004f19190620021cf565b60405180910390f35b3480156200050757600080fd5b506200052660048036038101906200052091906200218c565b62001182565b60405162000535919062002231565b60405180910390f35b3480156200054b57600080fd5b506200056a6004803603810190620005649190620025d9565b620011c2565b005b3480156200057957600080fd5b506200059860048036038101906200059291906200224e565b620012ec565b604051620005a79190620021cf565b60405180910390f35b348015620005bd57600080fd5b50620005dc6004803603810190620005d691906200224e565b6200130b565b604051620005eb919062002526565b60405180910390f35b3480156200060157600080fd5b506200060c62001368565b6040516200061b919062002231565b60405180910390f35b3480156200063157600080fd5b506200065060048036038101906200064a91906200218c565b6200138e565b6040516200065f91906200273e565b60405180910390f35b3480156200067557600080fd5b506200069460048036038101906200068e91906200224e565b620014b6565b604051620006a3919062002808565b60405180910390f35b348015620006b957600080fd5b50620006d86004803603810190620006d291906200218c565b6200165b565b604051620006ed97969594939291906200282c565b60405180910390f35b3480156200070357600080fd5b506200072260048036038101906200071c9190620028b0565b6200174b565b60405162000731919062002526565b60405180910390f35b3480156200074757600080fd5b506200076660048036038101906200076091906200218c565b620017fe565b005b3480156200077557600080fd5b506200079460048036038101906200078e91906200224e565b62001ad7565b005b348015620007a357600080fd5b50620007c26004803603810190620007bc91906200218c565b62001e58565b604051620007d19190620021cf565b60405180910390f35b348015620007e757600080fd5b506200080660048036038101906200080091906200218c565b62001e75565b005b6000151562000817336200174b565b1515146200082457600080fd5b6001339080600181540180825580915050600190039060005260206000200160009091909190916101000a81548173ffffffffffffffffffffffffffffffffffffffff021916908373ffffffffffffffffffffffffffffffffffffffff160217905550565b600060096000838152602001908152602001600020549050919050565b6000600580549050905090565b60008060029054906101000a900473ffffffffffffffffffffffffffffffffffffffff16905090565b600660205281600052604060002060205280600052604060002060009150915050806000015490806001018054620009149062002911565b80601f0160208091040260200160405190810160405280929190818152602001828054620009429062002911565b8015620009935780601f10620009675761010080835404028352916020019162000993565b820191906000526020600020905b8154815290600101906020018083116200097557829003601f168201915b5050505050908060020160009054906101000a900473ffffffffffffffffffffffffffffffffffffffff16908060030160009054906101000a900473ffffffffffffffffffffffffffffffffffffffff16908060040154908060050154905086565b60008062000a03836200138e565b90508060800151915050919050565b60076020528060005260406000206000915090505481565b60096020528060005260406000206000915090505481565b600260009054906101000a900473ffffffffffffffffffffffffffffffffffffffff1673ffffffffffffffffffffffffffffffffffffffff163373ffffffffffffffffffffffffffffffffffffffff161462000ad5576040517f08c379a000000000000000000000000000000000000000000000000000000000815260040162000acc90620029bc565b60405180910390fd5b60056040518060e00160405280600354815260200186868080601f016020809104026020016040519081016040528093929190818152602001838380828437600081840152601f19601f8201169050808301925050505050505081526020018481526020018381526020016000815260200142815260200160011515815250908060018154018082558091505060019003906000526020600020906007020160009091909190915060008201518160000155602082015181600101908162000b9e919062002bdf565b5060408201518160020155606082015181600301556080820151816004015560a0820151816005015560c08201518160060160006101000a81548160ff021916908315150217905550505060006007600060035481526020019081526020016000208190555060016003600082825462000c19919062002cf5565b9250508190555050505050565b6008602052816000526040600020818154811062000c4357600080fd5b906000526020600020016000915091509054906101000a900473ffffffffffffffffffffffffffffffffffffffff1681565b6000805b600860008581526020019081526020016000208054905081101562000d3f578273ffffffffffffffffffffffffffffffffffffffff1660086000868152602001908152602001600020828154811062000cd75762000cd662002d30565b5b9060005260206000200160009054906101000a900473ffffffffffffffffffffffffffffffffffffffff1673ffffffffffffffffffffffffffffffffffffffff160362000d2957600191505062000d45565b808062000d369062002d5f565b91505062000c79565b50600090505b92915050565b600062000d58866200138e565b905062000d65336200174b565b62000da7576040517f08c379a000000000000000000000000000000000000000000000000000000000815260040162000d9e9062002dfc565b60405180910390fd5b62000db28662001056565b62000df4576040517f08c379a000000000000000000000000000000000000000000000000000000000815260040162000deb9062002e94565b60405180910390fd5b806040015134101562000e3e576040517f08c379a000000000000000000000000000000000000000000000000000000000815260040162000e359062002f06565b60405180910390fd5b600160076000888152602001908152602001600020600082825462000e64919062002cf5565b92505081905550346005878154811062000e835762000e8262002d30565b5b9060005260206000209060070201600401600082825462000ea5919062002cf5565b925050819055506000600760008881526020019081526020016000205490506040518060c0016040528082815260200187878080601f016020809104026020016040519081016040528093929190818152602001838380828437600081840152601f19601f8201169050808301925050505050505081526020013373ffffffffffffffffffffffffffffffffffffffff1681526020018573ffffffffffffffffffffffffffffffffffffffff168152602001600081526020018481525060066000898152602001908152602001600020600083815260200190815260200160002060008201518160000155602082015181600101908162000fa7919062002bdf565b5060408201518160020160006101000a81548173ffffffffffffffffffffffffffffffffffffffff021916908373ffffffffffffffffffffffffffffffffffffffff16021790555060608201518160030160006101000a81548173ffffffffffffffffffffffffffffffffffffffff021916908373ffffffffffffffffffffffffffffffffffffffff1602179055506080820151816004015560a0820151816005015590505050505050505050565b6000600582815481106200106f576200106e62002d30565b5b906000526020600020906007020160060160009054906101000a900460ff169050919050565b600080600760008481526020019081526020016000205490506000806000600190505b600184620010c7919062002cf5565b81101562001176578260066000888152602001908152602001600020600083815260200190815260200160002060040154111562001159576006600087815260200190815260200160002060008281526020019081526020016000206004015492506006600087815260200190815260200160002060008281526020019081526020016000206000015491506200115f565b62001160565b5b80806200116d9062002d5f565b915050620010b8565b50809350505050919050565b600181815481106200119357600080fd5b906000526020600020016000915054906101000a900473ffffffffffffffffffffffffffffffffffffffff1681565b600260009054906101000a900473ffffffffffffffffffffffffffffffffffffffff1673ffffffffffffffffffffffffffffffffffffffff163373ffffffffffffffffffffffffffffffffffffffff161462001255576040517f08c379a00000000000000000000000000000000000000000000000000000000081526004016200124c90620029bc565b60405180910390fd5b600060029054906101000a900473ffffffffffffffffffffffffffffffffffffffff1673ffffffffffffffffffffffffffffffffffffffff166340c10f1983836040518363ffffffff1660e01b8152600401620012b492919062002f28565b600060405180830381600087803b158015620012cf57600080fd5b505af1158015620012e4573d6000803e3d6000fd5b505050505050565b600080620012fb8484620014b6565b9050806080015191505092915050565b6000620013188362001056565b6200132257600080fd5b60006006600085815260200190815260200160002060008481526020019081526020016000206000015411156200135d576001905062001362565b600090505b92915050565b600260009054906101000a900473ffffffffffffffffffffffffffffffffffffffff1681565b6200139862002098565b60058281548110620013af57620013ae62002d30565b5b90600052602060002090600702016040518060e001604052908160008201548152602001600182018054620013e49062002911565b80601f0160208091040260200160405190810160405280929190818152602001828054620014129062002911565b8015620014635780601f10620014375761010080835404028352916020019162001463565b820191906000526020600020905b8154815290600101906020018083116200144557829003601f168201915b50505050508152602001600282015481526020016003820154815260200160048201548152602001600582015481526020016006820160009054906101000a900460ff1615151515815250509050919050565b620014c0620020d7565b6006600084815260200190815260200160002060008381526020019081526020016000206040518060c0016040529081600082015481526020016001820180546200150b9062002911565b80601f0160208091040260200160405190810160405280929190818152602001828054620015399062002911565b80156200158a5780601f106200155e576101008083540402835291602001916200158a565b820191906000526020600020905b8154815290600101906020018083116200156c57829003601f168201915b505050505081526020016002820160009054906101000a900473ffffffffffffffffffffffffffffffffffffffff1673ffffffffffffffffffffffffffffffffffffffff1673ffffffffffffffffffffffffffffffffffffffff1681526020016003820160009054906101000a900473ffffffffffffffffffffffffffffffffffffffff1673ffffffffffffffffffffffffffffffffffffffff1673ffffffffffffffffffffffffffffffffffffffff16815260200160048201548152602001600582015481525050905092915050565b600581815481106200166c57600080fd5b9060005260206000209060070201600091509050806000015490806001018054620016979062002911565b80601f0160208091040260200160405190810160405280929190818152602001828054620016c59062002911565b8015620017165780601f10620016ea5761010080835404028352916020019162001716565b820191906000526020600020905b815481529060010190602001808311620016f857829003601f168201915b5050505050908060020154908060030154908060040154908060050154908060060160009054906101000a900460ff16905087565b6000805b600180549050811015620017f3578273ffffffffffffffffffffffffffffffffffffffff16600182815481106200178b576200178a62002d30565b5b9060005260206000200160009054906101000a900473ffffffffffffffffffffffffffffffffffffffff1673ffffffffffffffffffffffffffffffffffffffff1603620017dd576001915050620017f9565b8080620017ea9062002d5f565b9150506200174f565b50600090505b919050565b600260009054906101000a900473ffffffffffffffffffffffffffffffffffffffff1673ffffffffffffffffffffffffffffffffffffffff163373ffffffffffffffffffffffffffffffffffffffff161462001891576040517f08c379a00000000000000000000000000000000000000000000000000000000081526004016200188890620029bc565b60405180910390fd5b60011515620018a08262001056565b151514620018e5576040517f08c379a0000000000000000000000000000000000000000000000000000000008152600401620018dc9062002fa5565b60405180910390fd5b6000620018f2826200138e565b90506000620019018362001095565b90506000620019118483620014b6565b905060008360600151905060008460800151905060008360400151905060008173ffffffffffffffffffffffffffffffffffffffff1683604051620019569062002ffc565b60006040518083038185875af1925050503d806000811462001995576040519150601f19603f3d011682016040523d82523d6000602084013e6200199a565b606091505b5050905080620019e1576040517f08c379a0000000000000000000000000000000000000000000000000000000008152600401620019d89062003063565b60405180910390fd5b600060029054906101000a900473ffffffffffffffffffffffffffffffffffffffff1673ffffffffffffffffffffffffffffffffffffffff166340c10f1983866040518363ffffffff1660e01b815260040162001a4092919062002f28565b600060405180830381600087803b15801562001a5b57600080fd5b505af115801562001a70573d6000803e3d6000fd5b5050505085600960008a81526020019081526020016000208190555060006005898154811062001aa55762001aa462002d30565b5b906000526020600020906007020160060160006101000a81548160ff0219169083151502179055505050505050505050565b6001151562001ae68362001056565b15151462001b2b576040517f08c379a000000000000000000000000000000000000000000000000000000000815260040162001b229062002fa5565b60405180910390fd5b6001151562001b3b83836200130b565b15151462001b80576040517f08c379a000000000000000000000000000000000000000000000000000000000815260040162001b7790620030d5565b60405180910390fd5b62001b8b336200174b565b62001bcd576040517f08c379a000000000000000000000000000000000000000000000000000000000815260040162001bc49062003147565b60405180910390fd5b600454600060029054906101000a900473ffffffffffffffffffffffffffffffffffffffff1673ffffffffffffffffffffffffffffffffffffffff166370a08231336040518263ffffffff1660e01b815260040162001c2d919062002231565b602060405180830381865afa15801562001c4b573d6000803e3d6000fd5b505050506040513d601f19601f8201168201806040525081019062001c71919062003180565b101562001cb5576040517f08c379a000000000000000000000000000000000000000000000000000000000815260040162001cac9062003202565b60405180910390fd5b6000151562001cc5833362000c75565b15151462001d0a576040517f08c379a000000000000000000000000000000000000000000000000000000000815260040162001d019062003274565b60405180910390fd5b600060029054906101000a900473ffffffffffffffffffffffffffffffffffffffff1673ffffffffffffffffffffffffffffffffffffffff166379cc6790336004546040518363ffffffff1660e01b815260040162001d6b92919062002f28565b600060405180830381600087803b15801562001d8657600080fd5b505af115801562001d9b573d6000803e3d6000fd5b5050505060086000838152602001908152602001600020339080600181540180825580915050600190039060005260206000200160009091909190916101000a81548173ffffffffffffffffffffffffffffffffffffffff021916908373ffffffffffffffffffffffffffffffffffffffff1602179055506001600660008481526020019081526020016000206000838152602001908152602001600020600401600082825462001e4d919062002cf5565b925050819055505050565b600060076000838152602001908152602001600020549050919050565b60008060019054906101000a900460ff1615905080801562001ea75750600160008054906101000a900460ff1660ff16105b8062001ed8575062001eb93062002075565b15801562001ed75750600160008054906101000a900460ff1660ff16145b5b62001f1a576040517f08c379a000000000000000000000000000000000000000000000000000000000815260040162001f11906200330c565b60405180910390fd5b60016000806101000a81548160ff021916908360ff160217905550801562001f58576001600060016101000a81548160ff0219169083151502179055505b60405162001f669062002139565b604051809103906000f08015801562001f83573d6000803e3d6000fd5b50600060026101000a81548173ffffffffffffffffffffffffffffffffffffffff021916908373ffffffffffffffffffffffffffffffffffffffff1602179055506003546003819055508160048190555033600260006101000a81548173ffffffffffffffffffffffffffffffffffffffff021916908373ffffffffffffffffffffffffffffffffffffffff1602179055508015620020715760008060016101000a81548160ff0219169083151502179055507f7f26b83ff96e1f2b6a682f133852f6798a09c465da95921460cefb384740249860016040516200206891906200337e565b60405180910390a15b5050565b6000808273ffffffffffffffffffffffffffffffffffffffff163b119050919050565b6040518060e001604052806000815260200160608152602001600081526020016000815260200160008152602001600081526020016000151581525090565b6040518060c001604052806000815260200160608152602001600073ffffffffffffffffffffffffffffffffffffffff168152602001600073ffffffffffffffffffffffffffffffffffffffff16815260200160008152602001600081525090565b612569806200339c83390190565b600080fd5b600080fd5b6000819050919050565b620021668162002151565b81146200217257600080fd5b50565b60008135905062002186816200215b565b92915050565b600060208284031215620021a557620021a462002147565b5b6000620021b58482850162002175565b91505092915050565b620021c98162002151565b82525050565b6000602082019050620021e66000830184620021be565b92915050565b600073ffffffffffffffffffffffffffffffffffffffff82169050919050565b60006200221982620021ec565b9050919050565b6200222b816200220c565b82525050565b600060208201905062002248600083018462002220565b92915050565b6000806040838503121562002268576200226762002147565b5b6000620022788582860162002175565b92505060206200228b8582860162002175565b9150509250929050565b600081519050919050565b600082825260208201905092915050565b60005b83811015620022d1578082015181840152602081019050620022b4565b60008484015250505050565b6000601f19601f8301169050919050565b6000620022fb8262002295565b620023078185620022a0565b935062002319818560208601620022b1565b6200232481620022dd565b840191505092915050565b600060c082019050620023466000830189620021be565b81810360208301526200235a8188620022ee565b90506200236b604083018762002220565b6200237a606083018662002220565b620023896080830185620021be565b6200239860a0830184620021be565b979650505050505050565b600080fd5b600080fd5b600080fd5b60008083601f840112620023cb57620023ca620023a3565b5b8235905067ffffffffffffffff811115620023eb57620023ea620023a8565b5b6020830191508360018202830111156200240a5762002409620023ad565b5b9250929050565b600080600080606085870312156200242e576200242d62002147565b5b600085013567ffffffffffffffff8111156200244f576200244e6200214c565b5b6200245d87828801620023b2565b94509450506020620024728782880162002175565b9250506040620024858782880162002175565b91505092959194509250565b6200249c816200220c565b8114620024a857600080fd5b50565b600081359050620024bc8162002491565b92915050565b60008060408385031215620024dc57620024db62002147565b5b6000620024ec8582860162002175565b9250506020620024ff85828601620024ab565b9150509250929050565b60008115159050919050565b620025208162002509565b82525050565b60006020820190506200253d600083018462002515565b92915050565b60008060008060006080868803121562002562576200256162002147565b5b6000620025728882890162002175565b955050602086013567ffffffffffffffff8111156200259657620025956200214c565b5b620025a488828901620023b2565b94509450506040620025b988828901620024ab565b9250506060620025cc8882890162002175565b9150509295509295909350565b60008060408385031215620025f357620025f262002147565b5b60006200260385828601620024ab565b9250506020620026168582860162002175565b9150509250929050565b6200262b8162002151565b82525050565b600082825260208201905092915050565b60006200264f8262002295565b6200265b818562002631565b93506200266d818560208601620022b1565b6200267881620022dd565b840191505092915050565b6200268e8162002509565b82525050565b600060e083016000830151620026ae600086018262002620565b5060208301518482036020860152620026c8828262002642565b9150506040830151620026df604086018262002620565b506060830151620026f4606086018262002620565b50608083015162002709608086018262002620565b5060a08301516200271e60a086018262002620565b5060c08301516200273360c086018262002683565b508091505092915050565b600060208201905081810360008301526200275a818462002694565b905092915050565b6200276d816200220c565b82525050565b600060c0830160008301516200278d600086018262002620565b5060208301518482036020860152620027a7828262002642565b9150506040830151620027be604086018262002762565b506060830151620027d3606086018262002762565b506080830151620027e8608086018262002620565b5060a0830151620027fd60a086018262002620565b508091505092915050565b6000602082019050818103600083015262002824818462002773565b905092915050565b600060e08201905062002843600083018a620021be565b8181036020830152620028578189620022ee565b9050620028686040830188620021be565b620028776060830187620021be565b620028866080830186620021be565b6200289560a0830185620021be565b620028a460c083018462002515565b98975050505050505050565b600060208284031215620028c957620028c862002147565b5b6000620028d984828501620024ab565b91505092915050565b7f4e487b7100000000000000000000000000000000000000000000000000000000600052602260045260246000fd5b600060028204905060018216806200292a57607f821691505b60208210810362002940576200293f620028e2565b5b50919050565b7f4f6e6c79206f776e65722063616e2063616c6c20746869732066756e6374696f60008201527f6e00000000000000000000000000000000000000000000000000000000000000602082015250565b6000620029a4602183620022a0565b9150620029b18262002946565b604082019050919050565b60006020820190508181036000830152620029d78162002995565b9050919050565b7f4e487b7100000000000000000000000000000000000000000000000000000000600052604160045260246000fd5b60008190508160005260206000209050919050565b60006020601f8301049050919050565b600082821b905092915050565b60006008830262002a717fffffffffffffffffffffffffffffffffffffffffffffffffffffffffffffffff8262002a32565b62002a7d868362002a32565b95508019841693508086168417925050509392505050565b6000819050919050565b600062002ac062002aba62002ab48462002151565b62002a95565b62002151565b9050919050565b6000819050919050565b62002adc8362002a9f565b62002af462002aeb8262002ac7565b84845462002a3f565b825550505050565b600090565b62002b0b62002afc565b62002b1881848462002ad1565b505050565b5b8181101562002b405762002b3460008262002b01565b60018101905062002b1e565b5050565b601f82111562002b8f5762002b598162002a0d565b62002b648462002a22565b8101602085101562002b74578190505b62002b8c62002b838562002a22565b83018262002b1d565b50505b505050565b600082821c905092915050565b600062002bb46000198460080262002b94565b1980831691505092915050565b600062002bcf838362002ba1565b9150826002028217905092915050565b62002bea8262002295565b67ffffffffffffffff81111562002c065762002c05620029de565b5b62002c12825462002911565b62002c1f82828562002b44565b600060209050601f83116001811462002c57576000841562002c42578287015190505b62002c4e858262002bc1565b86555062002cbe565b601f19841662002c678662002a0d565b60005b8281101562002c915784890151825560018201915060208501945060208101905062002c6a565b8683101562002cb1578489015162002cad601f89168262002ba1565b8355505b6001600288020188555050505b505050505050565b7f4e487b7100000000000000000000000000000000000000000000000000000000600052601160045260246000fd5b600062002d028262002151565b915062002d0f8362002151565b925082820190508082111562002d2a5762002d2962002cc6565b5b92915050565b7f4e487b7100000000000000000000000000000000000000000000000000000000600052603260045260246000fd5b600062002d6c8262002151565b91507fffffffffffffffffffffffffffffffffffffffffffffffffffffffffffffffff820362002da15762002da062002cc6565b5b600182019050919050565b7f4f6e6c79206d656d626572732063616e2063726561746520616e20456e747279600082015250565b600062002de4602083620022a0565b915062002df18262002dac565b602082019050919050565b6000602082019050818103600083015262002e178162002dd5565b9050919050565b7f436f6e7465737420697320636c6f736564206f7220646f6573206e6f7420657860008201527f6973740000000000000000000000000000000000000000000000000000000000602082015250565b600062002e7c602383620022a0565b915062002e898262002e1e565b604082019050919050565b6000602082019050818103600083015262002eaf8162002e6d565b9050919050565b7f496e737566696369656e7420526567697374726174696f6e2046656500000000600082015250565b600062002eee601c83620022a0565b915062002efb8262002eb6565b602082019050919050565b6000602082019050818103600083015262002f218162002edf565b9050919050565b600060408201905062002f3f600083018562002220565b62002f4e6020830184620021be565b9392505050565b7f436f6e7465737420646f65736e2774206578697374206f72206973206f766572600082015250565b600062002f8d602083620022a0565b915062002f9a8262002f55565b602082019050919050565b6000602082019050818103600083015262002fc08162002f7e565b9050919050565b600081905092915050565b50565b600062002fe460008362002fc7565b915062002ff18262002fd2565b600082019050919050565b6000620030098262002fd5565b9150819050919050565b7f4661696c656420746f2073656e64205265776172640000000000000000000000600082015250565b60006200304b601583620022a0565b9150620030588262003013565b602082019050919050565b600060208201905081810360008301526200307e816200303c565b9050919050565b7f456e74727920646f65736e277420657869737400000000000000000000000000600082015250565b6000620030bd601383620022a0565b9150620030ca8262003085565b602082019050919050565b60006020820190508181036000830152620030f081620030ae565b9050919050565b7f4f6e6c79206d656d626572732063616e20766f74650000000000000000000000600082015250565b60006200312f601583620022a0565b91506200313c82620030f7565b602082019050919050565b60006020820190508181036000830152620031628162003120565b9050919050565b6000815190506200317a816200215b565b92915050565b60006020828403121562003199576200319862002147565b5b6000620031a98482850162003169565b91505092915050565b7f496e73756666696369656e7420546f6b656e20616d6f756e7400000000000000600082015250565b6000620031ea601983620022a0565b9150620031f782620031b2565b602082019050919050565b600060208201905081810360008301526200321d81620031db565b9050919050565b7f416464726573732068617320616c726561647920566f74656400000000000000600082015250565b60006200325c601983620022a0565b9150620032698262003224565b602082019050919050565b600060208201905081810360008301526200328f816200324d565b9050919050565b7f496e697469616c697a61626c653a20636f6e747261637420697320616c72656160008201527f647920696e697469616c697a6564000000000000000000000000000000000000602082015250565b6000620032f4602e83620022a0565b9150620033018262003296565b604082019050919050565b600060208201905081810360008301526200332781620032e5565b9050919050565b6000819050919050565b600060ff82169050919050565b600062003366620033606200335a846200332e565b62002a95565b62003338565b9050919050565b620033788162003345565b82525050565b60006020820190506200339560008301846200336d565b9291505056fe60806040523480156200001157600080fd5b506040518060400160405280600a81526020017f5353414320544f4b454e000000000000000000000000000000000000000000008152506040518060400160405280600381526020017f534143000000000000000000000000000000000000000000000000000000000081525081600390816200008f9190620005cf565b508060049081620000a19190620005cf565b505050620000c4620000b86200010760201b60201c565b6200010f60201b60201c565b6200010133620000d9620001d560201b60201c565b600a620000e7919062000846565b6064620000f5919062000897565b620001de60201b60201c565b620009ce565b600033905090565b6000600560009054906101000a900473ffffffffffffffffffffffffffffffffffffffff16905081600560006101000a81548173ffffffffffffffffffffffffffffffffffffffff021916908373ffffffffffffffffffffffffffffffffffffffff1602179055508173ffffffffffffffffffffffffffffffffffffffff168173ffffffffffffffffffffffffffffffffffffffff167f8be0079c531659141344cd1fd0a4f28419497f9722a3daafe3b4186f6b6457e060405160405180910390a35050565b60006012905090565b600073ffffffffffffffffffffffffffffffffffffffff168273ffffffffffffffffffffffffffffffffffffffff160362000250576040517f08c379a0000000000000000000000000000000000000000000000000000000008152600401620002479062000943565b60405180910390fd5b62000264600083836200034b60201b60201c565b806002600082825462000278919062000965565b92505081905550806000808473ffffffffffffffffffffffffffffffffffffffff1673ffffffffffffffffffffffffffffffffffffffff168152602001908152602001600020600082825401925050819055508173ffffffffffffffffffffffffffffffffffffffff16600073ffffffffffffffffffffffffffffffffffffffff167fddf252ad1be2c89b69c2b068fc378daa952ba7f163c4a11628f55a4df523b3ef836040516200032b9190620009b1565b60405180910390a362000347600083836200035060201b60201c565b5050565b505050565b505050565b600081519050919050565b7f4e487b7100000000000000000000000000000000000000000000000000000000600052604160045260246000fd5b7f4e487b7100000000000000000000000000000000000000000000000000000000600052602260045260246000fd5b60006002820490506001821680620003d757607f821691505b602082108103620003ed57620003ec6200038f565b5b50919050565b60008190508160005260206000209050919050565b60006020601f8301049050919050565b600082821b905092915050565b600060088302620004577fffffffffffffffffffffffffffffffffffffffffffffffffffffffffffffffff8262000418565b62000463868362000418565b95508019841693508086168417925050509392505050565b6000819050919050565b6000819050919050565b6000620004b0620004aa620004a4846200047b565b62000485565b6200047b565b9050919050565b6000819050919050565b620004cc836200048f565b620004e4620004db82620004b7565b84845462000425565b825550505050565b600090565b620004fb620004ec565b62000508818484620004c1565b505050565b5b81811015620005305762000524600082620004f1565b6001810190506200050e565b5050565b601f8211156200057f576200054981620003f3565b620005548462000408565b8101602085101562000564578190505b6200057c620005738562000408565b8301826200050d565b50505b505050565b600082821c905092915050565b6000620005a46000198460080262000584565b1980831691505092915050565b6000620005bf838362000591565b9150826002028217905092915050565b620005da8262000355565b67ffffffffffffffff811115620005f657620005f562000360565b5b620006028254620003be565b6200060f82828562000534565b600060209050601f83116001811462000647576000841562000632578287015190505b6200063e8582620005b1565b865550620006ae565b601f1984166200065786620003f3565b60005b8281101562000681578489015182556001820191506020850194506020810190506200065a565b86831015620006a157848901516200069d601f89168262000591565b8355505b6001600288020188555050505b505050505050565b7f4e487b7100000000000000000000000000000000000000000000000000000000600052601160045260246000fd5b60008160011c9050919050565b6000808291508390505b600185111562000744578086048111156200071c576200071b620006b6565b5b60018516156200072c5780820291505b80810290506200073c85620006e5565b9450620006fc565b94509492505050565b6000826200075f576001905062000832565b816200076f576000905062000832565b81600181146200078857600281146200079357620007c9565b600191505062000832565b60ff841115620007a857620007a7620006b6565b5b8360020a915084821115620007c257620007c1620006b6565b5b5062000832565b5060208310610133831016604e8410600b8410161715620008035782820a905083811115620007fd57620007fc620006b6565b5b62000832565b620008128484846001620006f2565b925090508184048111156200082c576200082b620006b6565b5b81810290505b9392505050565b600060ff82169050919050565b600062000853826200047b565b9150620008608362000839565b92506200088f7fffffffffffffffffffffffffffffffffffffffffffffffffffffffffffffffff84846200074d565b905092915050565b6000620008a4826200047b565b9150620008b1836200047b565b9250828202620008c1816200047b565b91508282048414831517620008db57620008da620006b6565b5b5092915050565b600082825260208201905092915050565b7f45524332303a206d696e7420746f20746865207a65726f206164647265737300600082015250565b60006200092b601f83620008e2565b91506200093882620008f3565b602082019050919050565b600060208201905081810360008301526200095e816200091c565b9050919050565b600062000972826200047b565b91506200097f836200047b565b92508282019050808211156200099a5762000999620006b6565b5b92915050565b620009ab816200047b565b82525050565b6000602082019050620009c86000830184620009a0565b92915050565b611b8b80620009de6000396000f3fe608060405234801561001057600080fd5b506004361061010b5760003560e01c806370a08231116100a257806395d89b411161007157806395d89b41146102a6578063a457c2d7146102c4578063a9059cbb146102f4578063dd62ed3e14610324578063f2fde38b146103545761010b565b806370a0823114610232578063715018a61461026257806379cc67901461026c5780638da5cb5b146102885761010b565b8063313ce567116100de578063313ce567146101ac57806339509351146101ca57806340c10f19146101fa57806342966c68146102165761010b565b806306fdde0314610110578063095ea7b31461012e57806318160ddd1461015e57806323b872dd1461017c575b600080fd5b610118610370565b6040516101259190611183565b60405180910390f35b6101486004803603810190610143919061123e565b610402565b6040516101559190611299565b60405180910390f35b610166610425565b60405161017391906112c3565b60405180910390f35b610196600480360381019061019191906112de565b61042f565b6040516101a39190611299565b60405180910390f35b6101b461045e565b6040516101c1919061134d565b60405180910390f35b6101e460048036038101906101df919061123e565b610467565b6040516101f19190611299565b60405180910390f35b610214600480360381019061020f919061123e565b61049e565b005b610230600480360381019061022b9190611368565b6104bf565b005b61024c60048036038101906102479190611395565b6104d3565b60405161025991906112c3565b60405180910390f35b61026a61051b565b005b6102866004803603810190610281919061123e565b61052f565b005b61029061054f565b60405161029d91906113d1565b60405180910390f35b6102ae610579565b6040516102bb9190611183565b60405180910390f35b6102de60048036038101906102d9919061123e565b61060b565b6040516102eb9190611299565b60405180910390f35b61030e6004803603810190610309919061123e565b610682565b60405161031b9190611299565b60405180910390f35b61033e600480360381019061033991906113ec565b6106a5565b60405161034b91906112c3565b60405180910390f35b61036e60048036038101906103699190611395565b61072c565b005b60606003805461037f9061145b565b80601f01602080910402602001604051908101604052809291908181526020018280546103ab9061145b565b80156103f85780601f106103cd576101008083540402835291602001916103f8565b820191906000526020600020905b8154815290600101906020018083116103db57829003601f168201915b5050505050905090565b60008061040d6107af565b905061041a8185856107b7565b600191505092915050565b6000600254905090565b60008061043a6107af565b9050610447858285610980565b610452858585610a0c565b60019150509392505050565b60006012905090565b6000806104726107af565b905061049381858561048485896106a5565b61048e91906114bb565b6107b7565b600191505092915050565b6104a6610c82565b6104b08282610d00565b6104bb8233836107b7565b5050565b6104d06104ca6107af565b82610e56565b50565b60008060008373ffffffffffffffffffffffffffffffffffffffff1673ffffffffffffffffffffffffffffffffffffffff168152602001908152602001600020549050919050565b610523610c82565b61052d6000611023565b565b6105418261053b6107af565b83610980565b61054b8282610e56565b5050565b6000600560009054906101000a900473ffffffffffffffffffffffffffffffffffffffff16905090565b6060600480546105889061145b565b80601f01602080910402602001604051908101604052809291908181526020018280546105b49061145b565b80156106015780601f106105d657610100808354040283529160200191610601565b820191906000526020600020905b8154815290600101906020018083116105e457829003601f168201915b5050505050905090565b6000806106166107af565b9050600061062482866106a5565b905083811015610669576040517f08c379a000000000000000000000000000000000000000000000000000000000815260040161066090611561565b60405180910390fd5b61067682868684036107b7565b60019250505092915050565b60008061068d6107af565b905061069a818585610a0c565b600191505092915050565b6000600160008473ffffffffffffffffffffffffffffffffffffffff1673ffffffffffffffffffffffffffffffffffffffff16815260200190815260200160002060008373ffffffffffffffffffffffffffffffffffffffff1673ffffffffffffffffffffffffffffffffffffffff16815260200190815260200160002054905092915050565b610734610c82565b600073ffffffffffffffffffffffffffffffffffffffff168173ffffffffffffffffffffffffffffffffffffffff16036107a3576040517f08c379a000000000000000000000000000000000000000000000000000000000815260040161079a906115f3565b60405180910390fd5b6107ac81611023565b50565b600033905090565b600073ffffffffffffffffffffffffffffffffffffffff168373ffffffffffffffffffffffffffffffffffffffff1603610826576040517f08c379a000000000000000000000000000000000000000000000000000000000815260040161081d90611685565b60405180910390fd5b600073ffffffffffffffffffffffffffffffffffffffff168273ffffffffffffffffffffffffffffffffffffffff1603610895576040517f08c379a000000000000000000000000000000000000000000000000000000000815260040161088c90611717565b60405180910390fd5b80600160008573ffffffffffffffffffffffffffffffffffffffff1673ffffffffffffffffffffffffffffffffffffffff16815260200190815260200160002060008473ffffffffffffffffffffffffffffffffffffffff1673ffffffffffffffffffffffffffffffffffffffff168152602001908152602001600020819055508173ffffffffffffffffffffffffffffffffffffffff168373ffffffffffffffffffffffffffffffffffffffff167f8c5be1e5ebec7d5bd14f71427d1e84f3dd0314c0f7b2291e5b200ac8c7c3b9258360405161097391906112c3565b60405180910390a3505050565b600061098c84846106a5565b90507fffffffffffffffffffffffffffffffffffffffffffffffffffffffffffffffff8114610a0657818110156109f8576040517f08c379a00000000000000000000000000000000000000000000000000000000081526004016109ef90611783565b60405180910390fd5b610a0584848484036107b7565b5b50505050565b600073ffffffffffffffffffffffffffffffffffffffff168373ffffffffffffffffffffffffffffffffffffffff1603610a7b576040517f08c379a0000000000000000000000000000000000000000000000000000000008152600401610a7290611815565b60405180910390fd5b600073ffffffffffffffffffffffffffffffffffffffff168273ffffffffffffffffffffffffffffffffffffffff1603610aea576040517f08c379a0000000000000000000000000000000000000000000000000000000008152600401610ae1906118a7565b60405180910390fd5b610af58383836110e9565b60008060008573ffffffffffffffffffffffffffffffffffffffff1673ffffffffffffffffffffffffffffffffffffffff16815260200190815260200160002054905081811015610b7b576040517f08c379a0000000000000000000000000000000000000000000000000000000008152600401610b7290611939565b60405180910390fd5b8181036000808673ffffffffffffffffffffffffffffffffffffffff1673ffffffffffffffffffffffffffffffffffffffff16815260200190815260200160002081905550816000808573ffffffffffffffffffffffffffffffffffffffff1673ffffffffffffffffffffffffffffffffffffffff168152602001908152602001600020600082825401925050819055508273ffffffffffffffffffffffffffffffffffffffff168473ffffffffffffffffffffffffffffffffffffffff167fddf252ad1be2c89b69c2b068fc378daa952ba7f163c4a11628f55a4df523b3ef84604051610c6991906112c3565b60405180910390a3610c7c8484846110ee565b50505050565b610c8a6107af565b73ffffffffffffffffffffffffffffffffffffffff16610ca861054f565b73ffffffffffffffffffffffffffffffffffffffff1614610cfe576040517f08c379a0000000000000000000000000000000000000000000000000000000008152600401610cf5906119a5565b60405180910390fd5b565b600073ffffffffffffffffffffffffffffffffffffffff168273ffffffffffffffffffffffffffffffffffffffff1603610d6f576040517f08c379a0000000000000000000000000000000000000000000000000000000008152600401610d6690611a11565b60405180910390fd5b610d7b600083836110e9565b8060026000828254610d8d91906114bb565b92505081905550806000808473ffffffffffffffffffffffffffffffffffffffff1673ffffffffffffffffffffffffffffffffffffffff168152602001908152602001600020600082825401925050819055508173ffffffffffffffffffffffffffffffffffffffff16600073ffffffffffffffffffffffffffffffffffffffff167fddf252ad1be2c89b69c2b068fc378daa952ba7f163c4a11628f55a4df523b3ef83604051610e3e91906112c3565b60405180910390a3610e52600083836110ee565b5050565b600073ffffffffffffffffffffffffffffffffffffffff168273ffffffffffffffffffffffffffffffffffffffff1603610ec5576040517f08c379a0000000000000000000000000000000000000000000000000000000008152600401610ebc90611aa3565b60405180910390fd5b610ed1826000836110e9565b60008060008473ffffffffffffffffffffffffffffffffffffffff1673ffffffffffffffffffffffffffffffffffffffff16815260200190815260200160002054905081811015610f57576040517f08c379a0000000000000000000000000000000000000000000000000000000008152600401610f4e90611b35565b60405180910390fd5b8181036000808573ffffffffffffffffffffffffffffffffffffffff1673ffffffffffffffffffffffffffffffffffffffff1681526020019081526020016000208190555081600260008282540392505081905550600073ffffffffffffffffffffffffffffffffffffffff168373ffffffffffffffffffffffffffffffffffffffff167fddf252ad1be2c89b69c2b068fc378daa952ba7f163c4a11628f55a4df523b3ef8460405161100a91906112c3565b60405180910390a361101e836000846110ee565b505050565b6000600560009054906101000a900473ffffffffffffffffffffffffffffffffffffffff16905081600560006101000a81548173ffffffffffffffffffffffffffffffffffffffff021916908373ffffffffffffffffffffffffffffffffffffffff1602179055508173ffffffffffffffffffffffffffffffffffffffff168173ffffffffffffffffffffffffffffffffffffffff167f8be0079c531659141344cd1fd0a4f28419497f9722a3daafe3b4186f6b6457e060405160405180910390a35050565b505050565b505050565b600081519050919050565b600082825260208201905092915050565b60005b8381101561112d578082015181840152602081019050611112565b60008484015250505050565b6000601f19601f8301169050919050565b6000611155826110f3565b61115f81856110fe565b935061116f81856020860161110f565b61117881611139565b840191505092915050565b6000602082019050818103600083015261119d818461114a565b905092915050565b600080fd5b600073ffffffffffffffffffffffffffffffffffffffff82169050919050565b60006111d5826111aa565b9050919050565b6111e5816111ca565b81146111f057600080fd5b50565b600081359050611202816111dc565b92915050565b6000819050919050565b61121b81611208565b811461122657600080fd5b50565b60008135905061123881611212565b92915050565b60008060408385031215611255576112546111a5565b5b6000611263858286016111f3565b925050602061127485828601611229565b9150509250929050565b60008115159050919050565b6112938161127e565b82525050565b60006020820190506112ae600083018461128a565b92915050565b6112bd81611208565b82525050565b60006020820190506112d860008301846112b4565b92915050565b6000806000606084860312156112f7576112f66111a5565b5b6000611305868287016111f3565b9350506020611316868287016111f3565b925050604061132786828701611229565b9150509250925092565b600060ff82169050919050565b61134781611331565b82525050565b6000602082019050611362600083018461133e565b92915050565b60006020828403121561137e5761137d6111a5565b5b600061138c84828501611229565b91505092915050565b6000602082840312156113ab576113aa6111a5565b5b60006113b9848285016111f3565b91505092915050565b6113cb816111ca565b82525050565b60006020820190506113e660008301846113c2565b92915050565b60008060408385031215611403576114026111a5565b5b6000611411858286016111f3565b9250506020611422858286016111f3565b9150509250929050565b7f4e487b7100000000000000000000000000000000000000000000000000000000600052602260045260246000fd5b6000600282049050600182168061147357607f821691505b6020821081036114865761148561142c565b5b50919050565b7f4e487b7100000000000000000000000000000000000000000000000000000000600052601160045260246000fd5b60006114c682611208565b91506114d183611208565b92508282019050808211156114e9576114e861148c565b5b92915050565b7f45524332303a2064656372656173656420616c6c6f77616e63652062656c6f7760008201527f207a65726f000000000000000000000000000000000000000000000000000000602082015250565b600061154b6025836110fe565b9150611556826114ef565b604082019050919050565b6000602082019050818103600083015261157a8161153e565b9050919050565b7f4f776e61626c653a206e6577206f776e657220697320746865207a65726f206160008201527f6464726573730000000000000000000000000000000000000000000000000000602082015250565b60006115dd6026836110fe565b91506115e882611581565b604082019050919050565b6000602082019050818103600083015261160c816115d0565b9050919050565b7f45524332303a20617070726f76652066726f6d20746865207a65726f2061646460008201527f7265737300000000000000000000000000000000000000000000000000000000602082015250565b600061166f6024836110fe565b915061167a82611613565b604082019050919050565b6000602082019050818103600083015261169e81611662565b9050919050565b7f45524332303a20617070726f766520746f20746865207a65726f20616464726560008201527f7373000000000000000000000000000000000000000000000000000000000000602082015250565b60006117016022836110fe565b915061170c826116a5565b604082019050919050565b60006020820190508181036000830152611730816116f4565b9050919050565b7f45524332303a20696e73756666696369656e7420616c6c6f77616e6365000000600082015250565b600061176d601d836110fe565b915061177882611737565b602082019050919050565b6000602082019050818103600083015261179c81611760565b9050919050565b7f45524332303a207472616e736665722066726f6d20746865207a65726f20616460008201527f6472657373000000000000000000000000000000000000000000000000000000602082015250565b60006117ff6025836110fe565b915061180a826117a3565b604082019050919050565b6000602082019050818103600083015261182e816117f2565b9050919050565b7f45524332303a207472616e7366657220746f20746865207a65726f206164647260008201527f6573730000000000000000000000000000000000000000000000000000000000602082015250565b60006118916023836110fe565b915061189c82611835565b604082019050919050565b600060208201905081810360008301526118c081611884565b9050919050565b7f45524332303a207472616e7366657220616d6f756e742065786365656473206260008201527f616c616e63650000000000000000000000000000000000000000000000000000602082015250565b60006119236026836110fe565b915061192e826118c7565b604082019050919050565b6000602082019050818103600083015261195281611916565b9050919050565b7f4f776e61626c653a2063616c6c6572206973206e6f7420746865206f776e6572600082015250565b600061198f6020836110fe565b915061199a82611959565b602082019050919050565b600060208201905081810360008301526119be81611982565b9050919050565b7f45524332303a206d696e7420746f20746865207a65726f206164647265737300600082015250565b60006119fb601f836110fe565b9150611a06826119c5565b602082019050919050565b60006020820190508181036000830152611a2a816119ee565b9050919050565b7f45524332303a206275726e2066726f6d20746865207a65726f2061646472657360008201527f7300000000000000000000000000000000000000000000000000000000000000602082015250565b6000611a8d6021836110fe565b9150611a9882611a31565b604082019050919050565b60006020820190508181036000830152611abc81611a80565b9050919050565b7f45524332303a206275726e20616d6f756e7420657863656564732062616c616e60008201527f6365000000000000000000000000000000000000000000000000000000000000602082015250565b6000611b1f6022836110fe565b9150611b2a82611ac3565b604082019050919050565b60006020820190508181036000830152611b4e81611b12565b905091905056fea264697066735822122069367c525bf4d3c38c588c47e7747af43ad86c03d2cda569bab54cc4decc3b7b64736f6c63430008110033a2646970667358221220022c33d771f6e1d88a8b468a6409a6e9ea2d97de88804674ddcd105cd7cd790a64736f6c63430008110033",
  "linkReferences": {},
  "deployedLinkReferences": {}
}