{
  "_format": "hh-sol-artifact-1",
  "contractName": "SsacCommunityV1",
  "sourceName": "contracts/SsacCommunityV1.sol",
  "abi": [
    {
      "anonymous": false,
      "inputs": [
        {
          "indexed": false,
          "internalType": "uint8",
          "name": "version",
          "type": "uint8"
        }
      ],
      "name": "Initialized",
      "type": "event"
    },
    {
      "inputs": [],
      "name": "addMember",
      "outputs": [],
      "stateMutability": "nonpayable",
      "type": "function"
    },
    {
      "inputs": [
        {
          "internalType": "uint256",
          "name": "",
          "type": "uint256"
        },
        {
          "internalType": "uint256",
          "name": "",
          "type": "uint256"
        }
      ],
      "name": "contestVoters",
      "outputs": [
        {
          "internalType": "address",
          "name": "",
          "type": "address"
        }
      ],
      "stateMutability": "view",
      "type": "function"
    },
    {
      "inputs": [
        {
          "internalType": "uint256",
          "name": "",
          "type": "uint256"
        }
      ],
      "name": "contests",
      "outputs": [
        {
          "internalType": "uint256",
          "name": "contestId",
          "type": "uint256"
        },
        {
          "internalType": "string",
          "name": "contestName",
          "type": "string"
        },
        {
          "internalType": "uint256",
          "name": "registrationFee",
          "type": "uint256"
        },
        {
          "internalType": "uint256",
          "name": "tokenReward",
          "type": "uint256"
        },
        {
          "internalType": "uint256",
          "name": "prizePool",
          "type": "uint256"
        },
        {
          "internalType": "uint256",
          "name": "startDate",
          "type": "uint256"
        },
        {
          "internalType": "bool",
          "name": "open",
          "type": "bool"
        }
      ],
      "stateMutability": "view",
      "type": "function"
    },
    {
      "inputs": [
        {
          "internalType": "string",
          "name": "_name",
          "type": "string"
        },
        {
          "internalType": "uint256",
          "name": "_registrationFee",
          "type": "uint256"
        },
        {
          "internalType": "uint256",
          "name": "_tokenReward",
          "type": "uint256"
        }
      ],
      "name": "createContest",
      "outputs": [],
      "stateMutability": "nonpayable",
      "type": "function"
    },
    {
      "inputs": [
        {
          "internalType": "uint256",
          "name": "_contestId",
          "type": "uint256"
        },
        {
          "internalType": "string",
          "name": "_title",
          "type": "string"
        },
        {
          "internalType": "address",
          "name": "_NFT_Address",
          "type": "address"
        }
      ],
      "name": "createEntry",
      "outputs": [],
      "stateMutability": "payable",
      "type": "function"
    },
    {
      "inputs": [
        {
          "internalType": "uint256",
          "name": "_contestId",
          "type": "uint256"
        }
      ],
      "name": "endContest",
      "outputs": [],
      "stateMutability": "nonpayable",
      "type": "function"
    },
    {
      "inputs": [
        {
          "internalType": "uint256",
          "name": "",
          "type": "uint256"
        },
        {
          "internalType": "uint256",
          "name": "",
          "type": "uint256"
        }
      ],
      "name": "entries",
      "outputs": [
        {
          "internalType": "uint256",
          "name": "entryId",
          "type": "uint256"
        },
        {
          "internalType": "string",
          "name": "entryTitle",
          "type": "string"
        },
        {
          "internalType": "address",
          "name": "entrantAddress",
          "type": "address"
        },
        {
          "internalType": "address",
          "name": "NFT_Address",
          "type": "address"
        },
        {
          "internalType": "uint256",
          "name": "noOfVotes",
          "type": "uint256"
        }
      ],
      "stateMutability": "view",
      "type": "function"
    },
    {
      "inputs": [
        {
          "internalType": "uint256",
          "name": "",
          "type": "uint256"
        }
      ],
      "name": "entriesCount",
      "outputs": [
        {
          "internalType": "uint256",
          "name": "",
          "type": "uint256"
        }
      ],
      "stateMutability": "view",
      "type": "function"
    },
    {
      "inputs": [
        {
          "internalType": "uint256",
          "name": "_contestId",
          "type": "uint256"
        }
      ],
      "name": "getContest",
      "outputs": [
        {
          "components": [
            {
              "internalType": "uint256",
              "name": "contestId",
              "type": "uint256"
            },
            {
              "internalType": "string",
              "name": "contestName",
              "type": "string"
            },
            {
              "internalType": "uint256",
              "name": "registrationFee",
              "type": "uint256"
            },
            {
              "internalType": "uint256",
              "name": "tokenReward",
              "type": "uint256"
            },
            {
              "internalType": "uint256",
              "name": "prizePool",
              "type": "uint256"
            },
            {
              "internalType": "uint256",
              "name": "startDate",
              "type": "uint256"
            },
            {
              "internalType": "bool",
              "name": "open",
              "type": "bool"
            }
          ],
          "internalType": "struct SsacCommunityV1.Contest",
          "name": "",
          "type": "tuple"
        }
      ],
      "stateMutability": "view",
      "type": "function"
    },
    {
      "inputs": [
        {
          "internalType": "uint256",
          "name": "_contestId",
          "type": "uint256"
        }
      ],
      "name": "getContestPrizePool",
      "outputs": [
        {
          "internalType": "uint256",
          "name": "",
          "type": "uint256"
        }
      ],
      "stateMutability": "view",
      "type": "function"
    },
    {
      "inputs": [
        {
          "internalType": "uint256",
          "name": "_contestId",
          "type": "uint256"
        },
        {
          "internalType": "uint256",
          "name": "_entryId",
          "type": "uint256"
        }
      ],
      "name": "getEntry",
      "outputs": [
        {
          "components": [
            {
              "internalType": "uint256",
              "name": "entryId",
              "type": "uint256"
            },
            {
              "internalType": "string",
              "name": "entryTitle",
              "type": "string"
            },
            {
              "internalType": "address",
              "name": "entrantAddress",
              "type": "address"
            },
            {
              "internalType": "address",
              "name": "NFT_Address",
              "type": "address"
            },
            {
              "internalType": "uint256",
              "name": "noOfVotes",
              "type": "uint256"
            }
          ],
          "internalType": "struct SsacCommunityV1.Entry",
          "name": "",
          "type": "tuple"
        }
      ],
      "stateMutability": "view",
      "type": "function"
    },
    {
      "inputs": [
        {
          "internalType": "uint256",
          "name": "_contestId",
          "type": "uint256"
        }
      ],
      "name": "getEntryWithHighestVote",
      "outputs": [
        {
          "internalType": "uint256",
          "name": "",
          "type": "uint256"
        }
      ],
      "stateMutability": "view",
      "type": "function"
    },
    {
      "inputs": [
        {
          "internalType": "uint256",
          "name": "_contestId",
          "type": "uint256"
        },
        {
          "internalType": "uint256",
          "name": "_entryId",
          "type": "uint256"
        }
      ],
      "name": "getNoOfVotes",
      "outputs": [
        {
          "internalType": "uint256",
          "name": "",
          "type": "uint256"
        }
      ],
      "stateMutability": "view",
      "type": "function"
    },
    {
      "inputs": [],
      "name": "getTokenAddress",
      "outputs": [
        {
          "internalType": "address",
          "name": "",
          "type": "address"
        }
      ],
      "stateMutability": "view",
      "type": "function"
    },
    {
      "inputs": [
        {
          "internalType": "uint256",
          "name": "_contestId",
          "type": "uint256"
        },
        {
          "internalType": "address",
          "name": "_addr",
          "type": "address"
        }
      ],
      "name": "hasVoted",
      "outputs": [
        {
          "internalType": "bool",
          "name": "",
          "type": "bool"
        }
      ],
      "stateMutability": "view",
      "type": "function"
    },
    {
      "inputs": [
        {
          "internalType": "uint256",
          "name": "_votingCost",
          "type": "uint256"
        }
      ],
      "name": "initialize",
      "outputs": [],
      "stateMutability": "nonpayable",
      "type": "function"
    },
    {
      "inputs": [
        {
          "internalType": "uint256",
          "name": "_contestId",
          "type": "uint256"
        }
      ],
      "name": "isContest",
      "outputs": [
        {
          "internalType": "bool",
          "name": "",
          "type": "bool"
        }
      ],
      "stateMutability": "view",
      "type": "function"
    },
    {
      "inputs": [
        {
          "internalType": "uint256",
          "name": "_contestId",
          "type": "uint256"
        },
        {
          "internalType": "uint256",
          "name": "_entryId",
          "type": "uint256"
        }
      ],
      "name": "isEntry",
      "outputs": [
        {
          "internalType": "bool",
          "name": "",
          "type": "bool"
        }
      ],
      "stateMutability": "view",
      "type": "function"
    },
    {
      "inputs": [
        {
          "internalType": "address",
          "name": "_addr",
          "type": "address"
        }
      ],
      "name": "isMember",
      "outputs": [
        {
          "internalType": "bool",
          "name": "",
          "type": "bool"
        }
      ],
      "stateMutability": "view",
      "type": "function"
    },
    {
      "inputs": [
        {
          "internalType": "uint256",
          "name": "",
          "type": "uint256"
        }
      ],
      "name": "members",
      "outputs": [
        {
          "internalType": "address",
          "name": "",
          "type": "address"
        }
      ],
      "stateMutability": "view",
      "type": "function"
    },
    {
      "inputs": [
        {
          "internalType": "address",
          "name": "_to",
          "type": "address"
        },
        {
          "internalType": "uint256",
          "name": "_amount",
          "type": "uint256"
        }
      ],
      "name": "mintToken",
      "outputs": [],
      "stateMutability": "nonpayable",
      "type": "function"
    },
    {
      "inputs": [],
      "name": "owner",
      "outputs": [
        {
          "internalType": "address",
          "name": "",
          "type": "address"
        }
      ],
      "stateMutability": "view",
      "type": "function"
    },
    {
      "inputs": [
        {
          "internalType": "uint256",
          "name": "_contestId",
          "type": "uint256"
        },
        {
          "internalType": "uint256",
          "name": "_entryId",
          "type": "uint256"
        }
      ],
      "name": "vote",
      "outputs": [],
      "stateMutability": "nonpayable",
      "type": "function"
    }
  ],
  "bytecode": "0x608060405234801561001057600080fd5b506157c3806100206000396000f3fe6080604052600436106200015e5760003560e01c80635daf08ca11620000c757806398ba676d116200007957806398ba676d14620005495780639d7ed738146200058d578063a230c52414620005d7578063afa984d0146200061b578063b384abef1462000649578063fe4b84df1462000677576200015e565b80635daf08ca14620003db57806379c65068146200041f57806385717001146200044d5780638cc7865c14620004915780638da5cb5b14620004d5578063904b9f721462000505576200015e565b80631de15b4a11620001215780631de15b4a146200027d578063308b0441146200029d57806334da9de714620002cb57806343859632146200030f5780635886d7db146200035357806359f444eb1462000397576200015e565b8063029d010d146200016357806310fe9ae8146200017d57806317b937e614620001ad5780631a85afbc14620001f55780631b9934ec1462000239575b600080fd5b3480156200017057600080fd5b506200017b620006a5565b005b3480156200018a57600080fd5b506200019562000726565b604051620001a4919062001fde565b60405180910390f35b348015620001ba57600080fd5b50620001d96004803603810190620001d3919062002040565b6200074f565b604051620001ec95949392919062002132565b60405180910390f35b3480156200020257600080fd5b506200022160048036038101906200021b919062002196565b62000862565b604051620002309190620021c8565b60405180910390f35b3480156200024657600080fd5b506200026560048036038101906200025f919062002196565b6200087f565b604051620002749190620021c8565b60405180910390f35b6200029b600480360381019062000295919062002284565b62000897565b005b348015620002aa57600080fd5b50620002c96004803603810190620002c3919062002304565b62000b91565b005b348015620002d857600080fd5b50620002f76004803603810190620002f1919062002040565b62000d75565b60405162000306919062001fde565b60405180910390f35b3480156200031c57600080fd5b506200033b600480360381019062000335919062002384565b62000dc4565b6040516200034a9190620023e8565b60405180910390f35b3480156200036057600080fd5b506200037f600480360381019062000379919062002196565b62000e9a565b6040516200038e9190620023e8565b60405180910390f35b348015620003a457600080fd5b50620003c36004803603810190620003bd919062002196565b62000ed9565b604051620003d29190620021c8565b60405180910390f35b348015620003e857600080fd5b5062000407600480360381019062000401919062002196565b62000fc6565b60405162000416919062001fde565b60405180910390f35b3480156200042c57600080fd5b506200044b600480360381019062000445919062002405565b62001006565b005b3480156200045a57600080fd5b5062000479600480360381019062000473919062002040565b62001130565b604051620004889190620021c8565b60405180910390f35b3480156200049e57600080fd5b50620004bd6004803603810190620004b7919062002040565b6200114f565b604051620004cc9190620023e8565b60405180910390f35b348015620004e257600080fd5b50620004ed620011ac565b604051620004fc919062001fde565b60405180910390f35b3480156200051257600080fd5b506200053160048036038101906200052b919062002196565b620011d2565b6040516200054091906200256a565b60405180910390f35b3480156200055657600080fd5b506200057560048036038101906200056f919062002040565b620012fa565b6040516200058491906200261f565b60405180910390f35b3480156200059a57600080fd5b50620005b96004803603810190620005b3919062002196565b620014ea565b604051620005ce979695949392919062002643565b60405180910390f35b348015620005e457600080fd5b50620006036004803603810190620005fd9190620026c7565b620015da565b604051620006129190620023e8565b60405180910390f35b3480156200062857600080fd5b5062000647600480360381019062000641919062002196565b6200168d565b005b3480156200065657600080fd5b506200067560048036038101906200066f919062002040565b6200194e565b005b3480156200068457600080fd5b50620006a360048036038101906200069d919062002196565b62001cce565b005b60001515620006b433620015da565b151514620006c157600080fd5b6001339080600181540180825580915050600190039060005260206000200160009091909190916101000a81548173ffffffffffffffffffffffffffffffffffffffff021916908373ffffffffffffffffffffffffffffffffffffffff160217905550565b60008060029054906101000a900473ffffffffffffffffffffffffffffffffffffffff16905090565b600660205281600052604060002060205280600052604060002060009150915050806000015490806001018054620007879062002728565b80601f0160208091040260200160405190810160405280929190818152602001828054620007b59062002728565b8015620008065780601f10620007da5761010080835404028352916020019162000806565b820191906000526020600020905b815481529060010190602001808311620007e857829003601f168201915b5050505050908060020160009054906101000a900473ffffffffffffffffffffffffffffffffffffffff16908060030160009054906101000a900473ffffffffffffffffffffffffffffffffffffffff16908060040154905085565b6000806200087083620011d2565b90508060800151915050919050565b60076020528060005260406000206000915090505481565b6000620008a485620011d2565b9050620008b133620015da565b620008f3576040517f08c379a0000000000000000000000000000000000000000000000000000000008152600401620008ea90620027ad565b60405180910390fd5b620008fe8562000e9a565b62000940576040517f08c379a0000000000000000000000000000000000000000000000000000000008152600401620009379062002845565b60405180910390fd5b80604001513410156200098a576040517f08c379a00000000000000000000000000000000000000000000000000000000081526004016200098190620028b7565b60405180910390fd5b6001600760008781526020019081526020016000206000828254620009b0919062002908565b925050819055503460058681548110620009cf57620009ce62002943565b5b90600052602060002090600702016004016000828254620009f1919062002908565b925050819055506000600760008781526020019081526020016000205490506040518060a0016040528082815260200186868080601f016020809104026020016040519081016040528093929190818152602001838380828437600081840152601f19601f8201169050808301925050505050505081526020013373ffffffffffffffffffffffffffffffffffffffff1681526020018473ffffffffffffffffffffffffffffffffffffffff168152602001600081525060066000888152602001908152602001600020600083815260200190815260200160002060008201518160000155602082015181600101908162000aed919062002b73565b5060408201518160020160006101000a81548173ffffffffffffffffffffffffffffffffffffffff021916908373ffffffffffffffffffffffffffffffffffffffff16021790555060608201518160030160006101000a81548173ffffffffffffffffffffffffffffffffffffffff021916908373ffffffffffffffffffffffffffffffffffffffff16021790555060808201518160040155905050505050505050565b600260009054906101000a900473ffffffffffffffffffffffffffffffffffffffff1673ffffffffffffffffffffffffffffffffffffffff163373ffffffffffffffffffffffffffffffffffffffff161462000c24576040517f08c379a000000000000000000000000000000000000000000000000000000000815260040162000c1b9062002cd0565b60405180910390fd5b60056040518060e00160405280600354815260200186868080601f016020809104026020016040519081016040528093929190818152602001838380828437600081840152601f19601f8201169050808301925050505050505081526020018481526020018381526020016000815260200142815260200160011515815250908060018154018082558091505060019003906000526020600020906007020160009091909190915060008201518160000155602082015181600101908162000ced919062002b73565b5060408201518160020155606082015181600301556080820151816004015560a0820151816005015560c08201518160060160006101000a81548160ff021916908315150217905550505060006007600060035481526020019081526020016000208190555060016003600082825462000d68919062002908565b9250508190555050505050565b6008602052816000526040600020818154811062000d9257600080fd5b906000526020600020016000915091509054906101000a900473ffffffffffffffffffffffffffffffffffffffff1681565b6000805b600860008581526020019081526020016000208054905081101562000e8e578273ffffffffffffffffffffffffffffffffffffffff1660086000868152602001908152602001600020828154811062000e265762000e2562002943565b5b9060005260206000200160009054906101000a900473ffffffffffffffffffffffffffffffffffffffff1673ffffffffffffffffffffffffffffffffffffffff160362000e7857600191505062000e94565b808062000e859062002cf2565b91505062000dc8565b50600090505b92915050565b60006005828154811062000eb35762000eb262002943565b5b906000526020600020906007020160060160009054906101000a900460ff169050919050565b600080600760008481526020019081526020016000205490506000806000600190505b60018462000f0b919062002908565b81101562000fba578260066000888152602001908152602001600020600083815260200190815260200160002060040154111562000f9d5760066000878152602001908152602001600020600082815260200190815260200160002060040154925060066000878152602001908152602001600020600082815260200190815260200160002060000154915062000fa3565b62000fa4565b5b808062000fb19062002cf2565b91505062000efc565b50809350505050919050565b6001818154811062000fd757600080fd5b906000526020600020016000915054906101000a900473ffffffffffffffffffffffffffffffffffffffff1681565b600260009054906101000a900473ffffffffffffffffffffffffffffffffffffffff1673ffffffffffffffffffffffffffffffffffffffff163373ffffffffffffffffffffffffffffffffffffffff161462001099576040517f08c379a0000000000000000000000000000000000000000000000000000000008152600401620010909062002cd0565b60405180910390fd5b600060029054906101000a900473ffffffffffffffffffffffffffffffffffffffff1673ffffffffffffffffffffffffffffffffffffffff166340c10f1983836040518363ffffffff1660e01b8152600401620010f892919062002d3f565b600060405180830381600087803b1580156200111357600080fd5b505af115801562001128573d6000803e3d6000fd5b505050505050565b6000806200113f8484620012fa565b9050806080015191505092915050565b60006200115c8362000e9a565b6200116657600080fd5b6000600660008581526020019081526020016000206000848152602001908152602001600020600001541115620011a15760019050620011a6565b600090505b92915050565b600260009054906101000a900473ffffffffffffffffffffffffffffffffffffffff1681565b620011dc62001ef1565b60058281548110620011f357620011f262002943565b5b90600052602060002090600702016040518060e001604052908160008201548152602001600182018054620012289062002728565b80601f0160208091040260200160405190810160405280929190818152602001828054620012569062002728565b8015620012a75780601f106200127b57610100808354040283529160200191620012a7565b820191906000526020600020905b8154815290600101906020018083116200128957829003601f168201915b50505050508152602001600282015481526020016003820154815260200160048201548152602001600582015481526020016006820160009054906101000a900460ff1615151515815250509050919050565b6200130462001f30565b600115156200131484846200114f565b15151462001359576040517f08c379a0000000000000000000000000000000000000000000000000000000008152600401620013509062002dbc565b60405180910390fd5b6006600084815260200190815260200160002060008381526020019081526020016000206040518060a001604052908160008201548152602001600182018054620013a49062002728565b80601f0160208091040260200160405190810160405280929190818152602001828054620013d29062002728565b8015620014235780601f10620013f75761010080835404028352916020019162001423565b820191906000526020600020905b8154815290600101906020018083116200140557829003601f168201915b505050505081526020016002820160009054906101000a900473ffffffffffffffffffffffffffffffffffffffff1673ffffffffffffffffffffffffffffffffffffffff1673ffffffffffffffffffffffffffffffffffffffff1681526020016003820160009054906101000a900473ffffffffffffffffffffffffffffffffffffffff1673ffffffffffffffffffffffffffffffffffffffff1673ffffffffffffffffffffffffffffffffffffffff168152602001600482015481525050905092915050565b60058181548110620014fb57600080fd5b9060005260206000209060070201600091509050806000015490806001018054620015269062002728565b80601f0160208091040260200160405190810160405280929190818152602001828054620015549062002728565b8015620015a55780601f106200157957610100808354040283529160200191620015a5565b820191906000526020600020905b8154815290600101906020018083116200158757829003601f168201915b5050505050908060020154908060030154908060040154908060050154908060060160009054906101000a900460ff16905087565b6000805b60018054905081101562001682578273ffffffffffffffffffffffffffffffffffffffff16600182815481106200161a576200161962002943565b5b9060005260206000200160009054906101000a900473ffffffffffffffffffffffffffffffffffffffff1673ffffffffffffffffffffffffffffffffffffffff16036200166c57600191505062001688565b8080620016799062002cf2565b915050620015de565b50600090505b919050565b600260009054906101000a900473ffffffffffffffffffffffffffffffffffffffff1673ffffffffffffffffffffffffffffffffffffffff163373ffffffffffffffffffffffffffffffffffffffff161462001720576040517f08c379a0000000000000000000000000000000000000000000000000000000008152600401620017179062002cd0565b60405180910390fd5b600115156200172f8262000e9a565b15151462001774576040517f08c379a00000000000000000000000000000000000000000000000000000000081526004016200176b9062002e2e565b60405180910390fd5b60006200178182620011d2565b90506000620017908362000ed9565b90506000620017a08483620012fa565b905060008360600151905060008460800151905060008360400151905060008173ffffffffffffffffffffffffffffffffffffffff1683604051620017e59062002e85565b60006040518083038185875af1925050503d806000811462001824576040519150601f19603f3d011682016040523d82523d6000602084013e62001829565b606091505b505090508062001870576040517f08c379a0000000000000000000000000000000000000000000000000000000008152600401620018679062002eec565b60405180910390fd5b600060029054906101000a900473ffffffffffffffffffffffffffffffffffffffff1673ffffffffffffffffffffffffffffffffffffffff166340c10f1983866040518363ffffffff1660e01b8152600401620018cf92919062002d3f565b600060405180830381600087803b158015620018ea57600080fd5b505af1158015620018ff573d6000803e3d6000fd5b505050506000600589815481106200191c576200191b62002943565b5b906000526020600020906007020160060160006101000a81548160ff0219169083151502179055505050505050505050565b600115156200195d8362000e9a565b151514620019a2576040517f08c379a0000000000000000000000000000000000000000000000000000000008152600401620019999062002e2e565b60405180910390fd5b60011515620019b283836200114f565b151514620019f7576040517f08c379a0000000000000000000000000000000000000000000000000000000008152600401620019ee9062002f5e565b60405180910390fd5b62001a0233620015da565b62001a44576040517f08c379a000000000000000000000000000000000000000000000000000000000815260040162001a3b9062002fd0565b60405180910390fd5b600454600060029054906101000a900473ffffffffffffffffffffffffffffffffffffffff1673ffffffffffffffffffffffffffffffffffffffff166370a08231336040518263ffffffff1660e01b815260040162001aa4919062001fde565b602060405180830381865afa15801562001ac2573d6000803e3d6000fd5b505050506040513d601f19601f8201168201806040525081019062001ae8919062003009565b1162001b2b576040517f08c379a000000000000000000000000000000000000000000000000000000000815260040162001b22906200308b565b60405180910390fd5b6000151562001b3b833362000dc4565b15151462001b80576040517f08c379a000000000000000000000000000000000000000000000000000000000815260040162001b7790620030fd565b60405180910390fd5b600060029054906101000a900473ffffffffffffffffffffffffffffffffffffffff1673ffffffffffffffffffffffffffffffffffffffff166379cc6790336004546040518363ffffffff1660e01b815260040162001be192919062002d3f565b600060405180830381600087803b15801562001bfc57600080fd5b505af115801562001c11573d6000803e3d6000fd5b5050505060086000838152602001908152602001600020339080600181540180825580915050600190039060005260206000200160009091909190916101000a81548173ffffffffffffffffffffffffffffffffffffffff021916908373ffffffffffffffffffffffffffffffffffffffff1602179055506001600660008481526020019081526020016000206000838152602001908152602001600020600401600082825462001cc3919062002908565b925050819055505050565b60008060019054906101000a900460ff1615905080801562001d005750600160008054906101000a900460ff1660ff16105b8062001d31575062001d123062001ece565b15801562001d305750600160008054906101000a900460ff1660ff16145b5b62001d73576040517f08c379a000000000000000000000000000000000000000000000000000000000815260040162001d6a9062003195565b60405180910390fd5b60016000806101000a81548160ff021916908360ff160217905550801562001db1576001600060016101000a81548160ff0219169083151502179055505b60405162001dbf9062001f8b565b604051809103906000f08015801562001ddc573d6000803e3d6000fd5b50600060026101000a81548173ffffffffffffffffffffffffffffffffffffffff021916908373ffffffffffffffffffffffffffffffffffffffff1602179055506003546003819055508160048190555033600260006101000a81548173ffffffffffffffffffffffffffffffffffffffff021916908373ffffffffffffffffffffffffffffffffffffffff160217905550801562001eca5760008060016101000a81548160ff0219169083151502179055507f7f26b83ff96e1f2b6a682f133852f6798a09c465da95921460cefb3847402498600160405162001ec1919062003207565b60405180910390a15b5050565b6000808273ffffffffffffffffffffffffffffffffffffffff163b119050919050565b6040518060e001604052806000815260200160608152602001600081526020016000815260200160008152602001600081526020016000151581525090565b6040518060a001604052806000815260200160608152602001600073ffffffffffffffffffffffffffffffffffffffff168152602001600073ffffffffffffffffffffffffffffffffffffffff168152602001600081525090565b612569806200322583390190565b600073ffffffffffffffffffffffffffffffffffffffff82169050919050565b600062001fc68262001f99565b9050919050565b62001fd88162001fb9565b82525050565b600060208201905062001ff5600083018462001fcd565b92915050565b600080fd5b600080fd5b6000819050919050565b6200201a8162002005565b81146200202657600080fd5b50565b6000813590506200203a816200200f565b92915050565b600080604083850312156200205a576200205962001ffb565b5b60006200206a8582860162002029565b92505060206200207d8582860162002029565b9150509250929050565b620020928162002005565b82525050565b600081519050919050565b600082825260208201905092915050565b60005b83811015620020d4578082015181840152602081019050620020b7565b60008484015250505050565b6000601f19601f8301169050919050565b6000620020fe8262002098565b6200210a8185620020a3565b93506200211c818560208601620020b4565b6200212781620020e0565b840191505092915050565b600060a08201905062002149600083018862002087565b81810360208301526200215d8187620020f1565b90506200216e604083018662001fcd565b6200217d606083018562001fcd565b6200218c608083018462002087565b9695505050505050565b600060208284031215620021af57620021ae62001ffb565b5b6000620021bf8482850162002029565b91505092915050565b6000602082019050620021df600083018462002087565b92915050565b600080fd5b600080fd5b600080fd5b60008083601f8401126200220d576200220c620021e5565b5b8235905067ffffffffffffffff8111156200222d576200222c620021ea565b5b6020830191508360018202830111156200224c576200224b620021ef565b5b9250929050565b6200225e8162001fb9565b81146200226a57600080fd5b50565b6000813590506200227e8162002253565b92915050565b60008060008060608587031215620022a157620022a062001ffb565b5b6000620022b18782880162002029565b945050602085013567ffffffffffffffff811115620022d557620022d462002000565b5b620022e387828801620021f4565b93509350506040620022f8878288016200226d565b91505092959194509250565b6000806000806060858703121562002321576200232062001ffb565b5b600085013567ffffffffffffffff81111562002342576200234162002000565b5b6200235087828801620021f4565b94509450506020620023658782880162002029565b9250506040620023788782880162002029565b91505092959194509250565b600080604083850312156200239e576200239d62001ffb565b5b6000620023ae8582860162002029565b9250506020620023c1858286016200226d565b9150509250929050565b60008115159050919050565b620023e281620023cb565b82525050565b6000602082019050620023ff6000830184620023d7565b92915050565b600080604083850312156200241f576200241e62001ffb565b5b60006200242f858286016200226d565b9250506020620024428582860162002029565b9150509250929050565b620024578162002005565b82525050565b600082825260208201905092915050565b60006200247b8262002098565b6200248781856200245d565b935062002499818560208601620020b4565b620024a481620020e0565b840191505092915050565b620024ba81620023cb565b82525050565b600060e083016000830151620024da60008601826200244c565b5060208301518482036020860152620024f482826200246e565b91505060408301516200250b60408601826200244c565b5060608301516200252060608601826200244c565b5060808301516200253560808601826200244c565b5060a08301516200254a60a08601826200244c565b5060c08301516200255f60c0860182620024af565b508091505092915050565b60006020820190508181036000830152620025868184620024c0565b905092915050565b620025998162001fb9565b82525050565b600060a083016000830151620025b960008601826200244c565b5060208301518482036020860152620025d382826200246e565b9150506040830151620025ea60408601826200258e565b506060830151620025ff60608601826200258e565b5060808301516200261460808601826200244c565b508091505092915050565b600060208201905081810360008301526200263b81846200259f565b905092915050565b600060e0820190506200265a600083018a62002087565b81810360208301526200266e8189620020f1565b90506200267f604083018862002087565b6200268e606083018762002087565b6200269d608083018662002087565b620026ac60a083018562002087565b620026bb60c0830184620023d7565b98975050505050505050565b600060208284031215620026e057620026df62001ffb565b5b6000620026f0848285016200226d565b91505092915050565b7f4e487b7100000000000000000000000000000000000000000000000000000000600052602260045260246000fd5b600060028204905060018216806200274157607f821691505b602082108103620027575762002756620026f9565b5b50919050565b7f4f6e6c79206d656d626572732063616e2063726561746520616e20456e747279600082015250565b600062002795602083620020a3565b9150620027a2826200275d565b602082019050919050565b60006020820190508181036000830152620027c88162002786565b9050919050565b7f436f6e7465737420697320636c6f736564206f7220646f6573206e6f7420657860008201527f6973740000000000000000000000000000000000000000000000000000000000602082015250565b60006200282d602383620020a3565b91506200283a82620027cf565b604082019050919050565b6000602082019050818103600083015262002860816200281e565b9050919050565b7f496e737566696369656e7420526567697374726174696f6e2046656500000000600082015250565b60006200289f601c83620020a3565b9150620028ac8262002867565b602082019050919050565b60006020820190508181036000830152620028d28162002890565b9050919050565b7f4e487b7100000000000000000000000000000000000000000000000000000000600052601160045260246000fd5b6000620029158262002005565b9150620029228362002005565b92508282019050808211156200293d576200293c620028d9565b5b92915050565b7f4e487b7100000000000000000000000000000000000000000000000000000000600052603260045260246000fd5b7f4e487b7100000000000000000000000000000000000000000000000000000000600052604160045260246000fd5b60008190508160005260206000209050919050565b60006020601f8301049050919050565b600082821b905092915050565b60006008830262002a057fffffffffffffffffffffffffffffffffffffffffffffffffffffffffffffffff82620029c6565b62002a118683620029c6565b95508019841693508086168417925050509392505050565b6000819050919050565b600062002a5462002a4e62002a488462002005565b62002a29565b62002005565b9050919050565b6000819050919050565b62002a708362002a33565b62002a8862002a7f8262002a5b565b848454620029d3565b825550505050565b600090565b62002a9f62002a90565b62002aac81848462002a65565b505050565b5b8181101562002ad45762002ac860008262002a95565b60018101905062002ab2565b5050565b601f82111562002b235762002aed81620029a1565b62002af884620029b6565b8101602085101562002b08578190505b62002b2062002b1785620029b6565b83018262002ab1565b50505b505050565b600082821c905092915050565b600062002b486000198460080262002b28565b1980831691505092915050565b600062002b63838362002b35565b9150826002028217905092915050565b62002b7e8262002098565b67ffffffffffffffff81111562002b9a5762002b9962002972565b5b62002ba6825462002728565b62002bb382828562002ad8565b600060209050601f83116001811462002beb576000841562002bd6578287015190505b62002be2858262002b55565b86555062002c52565b601f19841662002bfb86620029a1565b60005b8281101562002c255784890151825560018201915060208501945060208101905062002bfe565b8683101562002c45578489015162002c41601f89168262002b35565b8355505b6001600288020188555050505b505050505050565b7f4f6e6c79206f776e65722063616e2063616c6c20746869732066756e6374696f60008201527f6e00000000000000000000000000000000000000000000000000000000000000602082015250565b600062002cb8602183620020a3565b915062002cc58262002c5a565b604082019050919050565b6000602082019050818103600083015262002ceb8162002ca9565b9050919050565b600062002cff8262002005565b91507fffffffffffffffffffffffffffffffffffffffffffffffffffffffffffffffff820362002d345762002d33620028d9565b5b600182019050919050565b600060408201905062002d56600083018562001fcd565b62002d65602083018462002087565b9392505050565b7f656e747279206e6f7420666f756e640000000000000000000000000000000000600082015250565b600062002da4600f83620020a3565b915062002db18262002d6c565b602082019050919050565b6000602082019050818103600083015262002dd78162002d95565b9050919050565b7f436f6e7465737420646f65736e2774206578697374206f72206973206f766572600082015250565b600062002e16602083620020a3565b915062002e238262002dde565b602082019050919050565b6000602082019050818103600083015262002e498162002e07565b9050919050565b600081905092915050565b50565b600062002e6d60008362002e50565b915062002e7a8262002e5b565b600082019050919050565b600062002e928262002e5e565b9150819050919050565b7f4661696c656420746f2073656e64205265776172640000000000000000000000600082015250565b600062002ed4601583620020a3565b915062002ee18262002e9c565b602082019050919050565b6000602082019050818103600083015262002f078162002ec5565b9050919050565b7f456e74727920646f65736e277420657869737400000000000000000000000000600082015250565b600062002f46601383620020a3565b915062002f538262002f0e565b602082019050919050565b6000602082019050818103600083015262002f798162002f37565b9050919050565b7f4f6e6c79206d656d626572732063616e20766f74650000000000000000000000600082015250565b600062002fb8601583620020a3565b915062002fc58262002f80565b602082019050919050565b6000602082019050818103600083015262002feb8162002fa9565b9050919050565b60008151905062003003816200200f565b92915050565b60006020828403121562003022576200302162001ffb565b5b6000620030328482850162002ff2565b91505092915050565b7f496e73756666696369656e7420546f6b656e20616d6f756e7400000000000000600082015250565b600062003073601983620020a3565b915062003080826200303b565b602082019050919050565b60006020820190508181036000830152620030a68162003064565b9050919050565b7f416464726573732068617320616c726561647920566f74656400000000000000600082015250565b6000620030e5601983620020a3565b9150620030f282620030ad565b602082019050919050565b600060208201905081810360008301526200311881620030d6565b9050919050565b7f496e697469616c697a61626c653a20636f6e747261637420697320616c72656160008201527f647920696e697469616c697a6564000000000000000000000000000000000000602082015250565b60006200317d602e83620020a3565b91506200318a826200311f565b604082019050919050565b60006020820190508181036000830152620031b0816200316e565b9050919050565b6000819050919050565b600060ff82169050919050565b6000620031ef620031e9620031e384620031b7565b62002a29565b620031c1565b9050919050565b6200320181620031ce565b82525050565b60006020820190506200321e6000830184620031f6565b9291505056fe60806040523480156200001157600080fd5b506040518060400160405280600a81526020017f5353414320544f4b454e000000000000000000000000000000000000000000008152506040518060400160405280600381526020017f534143000000000000000000000000000000000000000000000000000000000081525081600390816200008f9190620005cf565b508060049081620000a19190620005cf565b505050620000c4620000b86200010760201b60201c565b6200010f60201b60201c565b6200010133620000d9620001d560201b60201c565b600a620000e7919062000846565b6064620000f5919062000897565b620001de60201b60201c565b620009ce565b600033905090565b6000600560009054906101000a900473ffffffffffffffffffffffffffffffffffffffff16905081600560006101000a81548173ffffffffffffffffffffffffffffffffffffffff021916908373ffffffffffffffffffffffffffffffffffffffff1602179055508173ffffffffffffffffffffffffffffffffffffffff168173ffffffffffffffffffffffffffffffffffffffff167f8be0079c531659141344cd1fd0a4f28419497f9722a3daafe3b4186f6b6457e060405160405180910390a35050565b60006012905090565b600073ffffffffffffffffffffffffffffffffffffffff168273ffffffffffffffffffffffffffffffffffffffff160362000250576040517f08c379a0000000000000000000000000000000000000000000000000000000008152600401620002479062000943565b60405180910390fd5b62000264600083836200034b60201b60201c565b806002600082825462000278919062000965565b92505081905550806000808473ffffffffffffffffffffffffffffffffffffffff1673ffffffffffffffffffffffffffffffffffffffff168152602001908152602001600020600082825401925050819055508173ffffffffffffffffffffffffffffffffffffffff16600073ffffffffffffffffffffffffffffffffffffffff167fddf252ad1be2c89b69c2b068fc378daa952ba7f163c4a11628f55a4df523b3ef836040516200032b9190620009b1565b60405180910390a362000347600083836200035060201b60201c565b5050565b505050565b505050565b600081519050919050565b7f4e487b7100000000000000000000000000000000000000000000000000000000600052604160045260246000fd5b7f4e487b7100000000000000000000000000000000000000000000000000000000600052602260045260246000fd5b60006002820490506001821680620003d757607f821691505b602082108103620003ed57620003ec6200038f565b5b50919050565b60008190508160005260206000209050919050565b60006020601f8301049050919050565b600082821b905092915050565b600060088302620004577fffffffffffffffffffffffffffffffffffffffffffffffffffffffffffffffff8262000418565b62000463868362000418565b95508019841693508086168417925050509392505050565b6000819050919050565b6000819050919050565b6000620004b0620004aa620004a4846200047b565b62000485565b6200047b565b9050919050565b6000819050919050565b620004cc836200048f565b620004e4620004db82620004b7565b84845462000425565b825550505050565b600090565b620004fb620004ec565b62000508818484620004c1565b505050565b5b81811015620005305762000524600082620004f1565b6001810190506200050e565b5050565b601f8211156200057f576200054981620003f3565b620005548462000408565b8101602085101562000564578190505b6200057c620005738562000408565b8301826200050d565b50505b505050565b600082821c905092915050565b6000620005a46000198460080262000584565b1980831691505092915050565b6000620005bf838362000591565b9150826002028217905092915050565b620005da8262000355565b67ffffffffffffffff811115620005f657620005f562000360565b5b620006028254620003be565b6200060f82828562000534565b600060209050601f83116001811462000647576000841562000632578287015190505b6200063e8582620005b1565b865550620006ae565b601f1984166200065786620003f3565b60005b8281101562000681578489015182556001820191506020850194506020810190506200065a565b86831015620006a157848901516200069d601f89168262000591565b8355505b6001600288020188555050505b505050505050565b7f4e487b7100000000000000000000000000000000000000000000000000000000600052601160045260246000fd5b60008160011c9050919050565b6000808291508390505b600185111562000744578086048111156200071c576200071b620006b6565b5b60018516156200072c5780820291505b80810290506200073c85620006e5565b9450620006fc565b94509492505050565b6000826200075f576001905062000832565b816200076f576000905062000832565b81600181146200078857600281146200079357620007c9565b600191505062000832565b60ff841115620007a857620007a7620006b6565b5b8360020a915084821115620007c257620007c1620006b6565b5b5062000832565b5060208310610133831016604e8410600b8410161715620008035782820a905083811115620007fd57620007fc620006b6565b5b62000832565b620008128484846001620006f2565b925090508184048111156200082c576200082b620006b6565b5b81810290505b9392505050565b600060ff82169050919050565b600062000853826200047b565b9150620008608362000839565b92506200088f7fffffffffffffffffffffffffffffffffffffffffffffffffffffffffffffffff84846200074d565b905092915050565b6000620008a4826200047b565b9150620008b1836200047b565b9250828202620008c1816200047b565b91508282048414831517620008db57620008da620006b6565b5b5092915050565b600082825260208201905092915050565b7f45524332303a206d696e7420746f20746865207a65726f206164647265737300600082015250565b60006200092b601f83620008e2565b91506200093882620008f3565b602082019050919050565b600060208201905081810360008301526200095e816200091c565b9050919050565b600062000972826200047b565b91506200097f836200047b565b92508282019050808211156200099a5762000999620006b6565b5b92915050565b620009ab816200047b565b82525050565b6000602082019050620009c86000830184620009a0565b92915050565b611b8b80620009de6000396000f3fe608060405234801561001057600080fd5b506004361061010b5760003560e01c806370a08231116100a257806395d89b411161007157806395d89b41146102a6578063a457c2d7146102c4578063a9059cbb146102f4578063dd62ed3e14610324578063f2fde38b146103545761010b565b806370a0823114610232578063715018a61461026257806379cc67901461026c5780638da5cb5b146102885761010b565b8063313ce567116100de578063313ce567146101ac57806339509351146101ca57806340c10f19146101fa57806342966c68146102165761010b565b806306fdde0314610110578063095ea7b31461012e57806318160ddd1461015e57806323b872dd1461017c575b600080fd5b610118610370565b6040516101259190611183565b60405180910390f35b6101486004803603810190610143919061123e565b610402565b6040516101559190611299565b60405180910390f35b610166610425565b60405161017391906112c3565b60405180910390f35b610196600480360381019061019191906112de565b61042f565b6040516101a39190611299565b60405180910390f35b6101b461045e565b6040516101c1919061134d565b60405180910390f35b6101e460048036038101906101df919061123e565b610467565b6040516101f19190611299565b60405180910390f35b610214600480360381019061020f919061123e565b61049e565b005b610230600480360381019061022b9190611368565b6104bf565b005b61024c60048036038101906102479190611395565b6104d3565b60405161025991906112c3565b60405180910390f35b61026a61051b565b005b6102866004803603810190610281919061123e565b61052f565b005b61029061054f565b60405161029d91906113d1565b60405180910390f35b6102ae610579565b6040516102bb9190611183565b60405180910390f35b6102de60048036038101906102d9919061123e565b61060b565b6040516102eb9190611299565b60405180910390f35b61030e6004803603810190610309919061123e565b610682565b60405161031b9190611299565b60405180910390f35b61033e600480360381019061033991906113ec565b6106a5565b60405161034b91906112c3565b60405180910390f35b61036e60048036038101906103699190611395565b61072c565b005b60606003805461037f9061145b565b80601f01602080910402602001604051908101604052809291908181526020018280546103ab9061145b565b80156103f85780601f106103cd576101008083540402835291602001916103f8565b820191906000526020600020905b8154815290600101906020018083116103db57829003601f168201915b5050505050905090565b60008061040d6107af565b905061041a8185856107b7565b600191505092915050565b6000600254905090565b60008061043a6107af565b9050610447858285610980565b610452858585610a0c565b60019150509392505050565b60006012905090565b6000806104726107af565b905061049381858561048485896106a5565b61048e91906114bb565b6107b7565b600191505092915050565b6104a6610c82565b6104b08282610d00565b6104bb8233836107b7565b5050565b6104d06104ca6107af565b82610e56565b50565b60008060008373ffffffffffffffffffffffffffffffffffffffff1673ffffffffffffffffffffffffffffffffffffffff168152602001908152602001600020549050919050565b610523610c82565b61052d6000611023565b565b6105418261053b6107af565b83610980565b61054b8282610e56565b5050565b6000600560009054906101000a900473ffffffffffffffffffffffffffffffffffffffff16905090565b6060600480546105889061145b565b80601f01602080910402602001604051908101604052809291908181526020018280546105b49061145b565b80156106015780601f106105d657610100808354040283529160200191610601565b820191906000526020600020905b8154815290600101906020018083116105e457829003601f168201915b5050505050905090565b6000806106166107af565b9050600061062482866106a5565b905083811015610669576040517f08c379a000000000000000000000000000000000000000000000000000000000815260040161066090611561565b60405180910390fd5b61067682868684036107b7565b60019250505092915050565b60008061068d6107af565b905061069a818585610a0c565b600191505092915050565b6000600160008473ffffffffffffffffffffffffffffffffffffffff1673ffffffffffffffffffffffffffffffffffffffff16815260200190815260200160002060008373ffffffffffffffffffffffffffffffffffffffff1673ffffffffffffffffffffffffffffffffffffffff16815260200190815260200160002054905092915050565b610734610c82565b600073ffffffffffffffffffffffffffffffffffffffff168173ffffffffffffffffffffffffffffffffffffffff16036107a3576040517f08c379a000000000000000000000000000000000000000000000000000000000815260040161079a906115f3565b60405180910390fd5b6107ac81611023565b50565b600033905090565b600073ffffffffffffffffffffffffffffffffffffffff168373ffffffffffffffffffffffffffffffffffffffff1603610826576040517f08c379a000000000000000000000000000000000000000000000000000000000815260040161081d90611685565b60405180910390fd5b600073ffffffffffffffffffffffffffffffffffffffff168273ffffffffffffffffffffffffffffffffffffffff1603610895576040517f08c379a000000000000000000000000000000000000000000000000000000000815260040161088c90611717565b60405180910390fd5b80600160008573ffffffffffffffffffffffffffffffffffffffff1673ffffffffffffffffffffffffffffffffffffffff16815260200190815260200160002060008473ffffffffffffffffffffffffffffffffffffffff1673ffffffffffffffffffffffffffffffffffffffff168152602001908152602001600020819055508173ffffffffffffffffffffffffffffffffffffffff168373ffffffffffffffffffffffffffffffffffffffff167f8c5be1e5ebec7d5bd14f71427d1e84f3dd0314c0f7b2291e5b200ac8c7c3b9258360405161097391906112c3565b60405180910390a3505050565b600061098c84846106a5565b90507fffffffffffffffffffffffffffffffffffffffffffffffffffffffffffffffff8114610a0657818110156109f8576040517f08c379a00000000000000000000000000000000000000000000000000000000081526004016109ef90611783565b60405180910390fd5b610a0584848484036107b7565b5b50505050565b600073ffffffffffffffffffffffffffffffffffffffff168373ffffffffffffffffffffffffffffffffffffffff1603610a7b576040517f08c379a0000000000000000000000000000000000000000000000000000000008152600401610a7290611815565b60405180910390fd5b600073ffffffffffffffffffffffffffffffffffffffff168273ffffffffffffffffffffffffffffffffffffffff1603610aea576040517f08c379a0000000000000000000000000000000000000000000000000000000008152600401610ae1906118a7565b60405180910390fd5b610af58383836110e9565b60008060008573ffffffffffffffffffffffffffffffffffffffff1673ffffffffffffffffffffffffffffffffffffffff16815260200190815260200160002054905081811015610b7b576040517f08c379a0000000000000000000000000000000000000000000000000000000008152600401610b7290611939565b60405180910390fd5b8181036000808673ffffffffffffffffffffffffffffffffffffffff1673ffffffffffffffffffffffffffffffffffffffff16815260200190815260200160002081905550816000808573ffffffffffffffffffffffffffffffffffffffff1673ffffffffffffffffffffffffffffffffffffffff168152602001908152602001600020600082825401925050819055508273ffffffffffffffffffffffffffffffffffffffff168473ffffffffffffffffffffffffffffffffffffffff167fddf252ad1be2c89b69c2b068fc378daa952ba7f163c4a11628f55a4df523b3ef84604051610c6991906112c3565b60405180910390a3610c7c8484846110ee565b50505050565b610c8a6107af565b73ffffffffffffffffffffffffffffffffffffffff16610ca861054f565b73ffffffffffffffffffffffffffffffffffffffff1614610cfe576040517f08c379a0000000000000000000000000000000000000000000000000000000008152600401610cf5906119a5565b60405180910390fd5b565b600073ffffffffffffffffffffffffffffffffffffffff168273ffffffffffffffffffffffffffffffffffffffff1603610d6f576040517f08c379a0000000000000000000000000000000000000000000000000000000008152600401610d6690611a11565b60405180910390fd5b610d7b600083836110e9565b8060026000828254610d8d91906114bb565b92505081905550806000808473ffffffffffffffffffffffffffffffffffffffff1673ffffffffffffffffffffffffffffffffffffffff168152602001908152602001600020600082825401925050819055508173ffffffffffffffffffffffffffffffffffffffff16600073ffffffffffffffffffffffffffffffffffffffff167fddf252ad1be2c89b69c2b068fc378daa952ba7f163c4a11628f55a4df523b3ef83604051610e3e91906112c3565b60405180910390a3610e52600083836110ee565b5050565b600073ffffffffffffffffffffffffffffffffffffffff168273ffffffffffffffffffffffffffffffffffffffff1603610ec5576040517f08c379a0000000000000000000000000000000000000000000000000000000008152600401610ebc90611aa3565b60405180910390fd5b610ed1826000836110e9565b60008060008473ffffffffffffffffffffffffffffffffffffffff1673ffffffffffffffffffffffffffffffffffffffff16815260200190815260200160002054905081811015610f57576040517f08c379a0000000000000000000000000000000000000000000000000000000008152600401610f4e90611b35565b60405180910390fd5b8181036000808573ffffffffffffffffffffffffffffffffffffffff1673ffffffffffffffffffffffffffffffffffffffff1681526020019081526020016000208190555081600260008282540392505081905550600073ffffffffffffffffffffffffffffffffffffffff168373ffffffffffffffffffffffffffffffffffffffff167fddf252ad1be2c89b69c2b068fc378daa952ba7f163c4a11628f55a4df523b3ef8460405161100a91906112c3565b60405180910390a361101e836000846110ee565b505050565b6000600560009054906101000a900473ffffffffffffffffffffffffffffffffffffffff16905081600560006101000a81548173ffffffffffffffffffffffffffffffffffffffff021916908373ffffffffffffffffffffffffffffffffffffffff1602179055508173ffffffffffffffffffffffffffffffffffffffff168173ffffffffffffffffffffffffffffffffffffffff167f8be0079c531659141344cd1fd0a4f28419497f9722a3daafe3b4186f6b6457e060405160405180910390a35050565b505050565b505050565b600081519050919050565b600082825260208201905092915050565b60005b8381101561112d578082015181840152602081019050611112565b60008484015250505050565b6000601f19601f8301169050919050565b6000611155826110f3565b61115f81856110fe565b935061116f81856020860161110f565b61117881611139565b840191505092915050565b6000602082019050818103600083015261119d818461114a565b905092915050565b600080fd5b600073ffffffffffffffffffffffffffffffffffffffff82169050919050565b60006111d5826111aa565b9050919050565b6111e5816111ca565b81146111f057600080fd5b50565b600081359050611202816111dc565b92915050565b6000819050919050565b61121b81611208565b811461122657600080fd5b50565b60008135905061123881611212565b92915050565b60008060408385031215611255576112546111a5565b5b6000611263858286016111f3565b925050602061127485828601611229565b9150509250929050565b60008115159050919050565b6112938161127e565b82525050565b60006020820190506112ae600083018461128a565b92915050565b6112bd81611208565b82525050565b60006020820190506112d860008301846112b4565b92915050565b6000806000606084860312156112f7576112f66111a5565b5b6000611305868287016111f3565b9350506020611316868287016111f3565b925050604061132786828701611229565b9150509250925092565b600060ff82169050919050565b61134781611331565b82525050565b6000602082019050611362600083018461133e565b92915050565b60006020828403121561137e5761137d6111a5565b5b600061138c84828501611229565b91505092915050565b6000602082840312156113ab576113aa6111a5565b5b60006113b9848285016111f3565b91505092915050565b6113cb816111ca565b82525050565b60006020820190506113e660008301846113c2565b92915050565b60008060408385031215611403576114026111a5565b5b6000611411858286016111f3565b9250506020611422858286016111f3565b9150509250929050565b7f4e487b7100000000000000000000000000000000000000000000000000000000600052602260045260246000fd5b6000600282049050600182168061147357607f821691505b6020821081036114865761148561142c565b5b50919050565b7f4e487b7100000000000000000000000000000000000000000000000000000000600052601160045260246000fd5b60006114c682611208565b91506114d183611208565b92508282019050808211156114e9576114e861148c565b5b92915050565b7f45524332303a2064656372656173656420616c6c6f77616e63652062656c6f7760008201527f207a65726f000000000000000000000000000000000000000000000000000000602082015250565b600061154b6025836110fe565b9150611556826114ef565b604082019050919050565b6000602082019050818103600083015261157a8161153e565b9050919050565b7f4f776e61626c653a206e6577206f776e657220697320746865207a65726f206160008201527f6464726573730000000000000000000000000000000000000000000000000000602082015250565b60006115dd6026836110fe565b91506115e882611581565b604082019050919050565b6000602082019050818103600083015261160c816115d0565b9050919050565b7f45524332303a20617070726f76652066726f6d20746865207a65726f2061646460008201527f7265737300000000000000000000000000000000000000000000000000000000602082015250565b600061166f6024836110fe565b915061167a82611613565b604082019050919050565b6000602082019050818103600083015261169e81611662565b9050919050565b7f45524332303a20617070726f766520746f20746865207a65726f20616464726560008201527f7373000000000000000000000000000000000000000000000000000000000000602082015250565b60006117016022836110fe565b915061170c826116a5565b604082019050919050565b60006020820190508181036000830152611730816116f4565b9050919050565b7f45524332303a20696e73756666696369656e7420616c6c6f77616e6365000000600082015250565b600061176d601d836110fe565b915061177882611737565b602082019050919050565b6000602082019050818103600083015261179c81611760565b9050919050565b7f45524332303a207472616e736665722066726f6d20746865207a65726f20616460008201527f6472657373000000000000000000000000000000000000000000000000000000602082015250565b60006117ff6025836110fe565b915061180a826117a3565b604082019050919050565b6000602082019050818103600083015261182e816117f2565b9050919050565b7f45524332303a207472616e7366657220746f20746865207a65726f206164647260008201527f6573730000000000000000000000000000000000000000000000000000000000602082015250565b60006118916023836110fe565b915061189c82611835565b604082019050919050565b600060208201905081810360008301526118c081611884565b9050919050565b7f45524332303a207472616e7366657220616d6f756e742065786365656473206260008201527f616c616e63650000000000000000000000000000000000000000000000000000602082015250565b60006119236026836110fe565b915061192e826118c7565b604082019050919050565b6000602082019050818103600083015261195281611916565b9050919050565b7f4f776e61626c653a2063616c6c6572206973206e6f7420746865206f776e6572600082015250565b600061198f6020836110fe565b915061199a82611959565b602082019050919050565b600060208201905081810360008301526119be81611982565b9050919050565b7f45524332303a206d696e7420746f20746865207a65726f206164647265737300600082015250565b60006119fb601f836110fe565b9150611a06826119c5565b602082019050919050565b60006020820190508181036000830152611a2a816119ee565b9050919050565b7f45524332303a206275726e2066726f6d20746865207a65726f2061646472657360008201527f7300000000000000000000000000000000000000000000000000000000000000602082015250565b6000611a8d6021836110fe565b9150611a9882611a31565b604082019050919050565b60006020820190508181036000830152611abc81611a80565b9050919050565b7f45524332303a206275726e20616d6f756e7420657863656564732062616c616e60008201527f6365000000000000000000000000000000000000000000000000000000000000602082015250565b6000611b1f6022836110fe565b9150611b2a82611ac3565b604082019050919050565b60006020820190508181036000830152611b4e81611b12565b905091905056fea264697066735822122069367c525bf4d3c38c588c47e7747af43ad86c03d2cda569bab54cc4decc3b7b64736f6c63430008110033a264697066735822122016f536f8381296455b40f7d2cdc2d1c21ab23f19a65b0ca086f1116811c6dd9464736f6c63430008110033",
  "linkReferences": {},
  "deployedLinkReferences": {}
}